{
  "address": "0xa4e1D21AfB844d3dAD1db4FDcC2cE22268E5633f",
  "abi": [
    {
      "inputs": [
        {
          "internalType": "address",
          "name": "_verifierAddr",
          "type": "address"
        },
        {
          "internalType": "address",
          "name": "_verifier",
          "type": "address"
        },
        {
          "internalType": "uint256",
          "name": "_pubkeyHash",
          "type": "uint256"
        }
      ],
      "stateMutability": "nonpayable",
      "type": "constructor"
    },
    {
      "anonymous": false,
      "inputs": [
        {
          "indexed": true,
          "internalType": "address",
          "name": "user",
          "type": "address"
        },
        {
          "indexed": false,
          "internalType": "uint256",
          "name": "violationIndex",
          "type": "uint256"
        },
        {
          "indexed": false,
          "internalType": "uint256",
          "name": "amount",
          "type": "uint256"
        }
      ],
      "name": "FinePaid",
      "type": "event"
    },
    {
      "anonymous": false,
      "inputs": [
        {
          "indexed": true,
          "internalType": "address",
          "name": "user",
          "type": "address"
        },
        {
          "indexed": false,
          "internalType": "uint256",
          "name": "newRewardBalance",
          "type": "uint256"
        }
      ],
      "name": "RewardUpdated",
      "type": "event"
    },
    {
      "anonymous": false,
      "inputs": [
        {
          "indexed": true,
          "internalType": "address",
          "name": "userAddress",
          "type": "address"
        },
        {
          "indexed": false,
          "internalType": "string",
          "name": "name",
          "type": "string"
        },
        {
          "indexed": false,
          "internalType": "string",
          "name": "vehicleRegistrationNumber",
          "type": "string"
        }
      ],
      "name": "UserCreated",
      "type": "event"
    },
    {
      "anonymous": false,
      "inputs": [
        {
          "indexed": true,
          "internalType": "address",
          "name": "user",
          "type": "address"
        },
        {
          "indexed": false,
          "internalType": "string",
          "name": "violationType",
          "type": "string"
        },
        {
          "indexed": false,
          "internalType": "address",
          "name": "reportedBy",
          "type": "address"
        },
        {
          "indexed": false,
          "internalType": "uint256",
          "name": "fineAmount",
          "type": "uint256"
        }
      ],
      "name": "ViolationReported",
      "type": "event"
    },
    {
      "inputs": [
        {
          "internalType": "uint256",
          "name": "",
          "type": "uint256"
        }
      ],
      "name": "allUsers",
      "outputs": [
        {
          "internalType": "address",
          "name": "",
          "type": "address"
        }
      ],
      "stateMutability": "view",
      "type": "function"
    },
    {
      "inputs": [],
      "name": "anonAadhaarVerifierAddr",
      "outputs": [
        {
          "internalType": "address",
          "name": "",
          "type": "address"
        }
      ],
      "stateMutability": "view",
      "type": "function"
    },
    {
      "inputs": [],
      "name": "convertPointsToRewards",
      "outputs": [],
      "stateMutability": "nonpayable",
      "type": "function"
    },
    {
      "inputs": [
        {
          "internalType": "string",
          "name": "_basename",
          "type": "string"
        },
        {
          "internalType": "string",
          "name": "_vehicleRegistrationNumber",
          "type": "string"
        },
        {
          "internalType": "string",
          "name": "_vehicleType",
          "type": "string"
        },
        {
          "components": [
            {
              "internalType": "uint256",
              "name": "nullifierSeed1",
              "type": "uint256"
            },
            {
              "internalType": "uint256",
              "name": "nullifier1",
              "type": "uint256"
            },
            {
              "internalType": "uint256",
              "name": "timestamp",
              "type": "uint256"
            },
            {
              "internalType": "uint256[4]",
              "name": "revealArray",
              "type": "uint256[4]"
            },
            {
              "internalType": "uint256[8]",
              "name": "groth16Proof1",
              "type": "uint256[8]"
            }
          ],
          "internalType": "struct Backend.CreateUserParams",
          "name": "params",
          "type": "tuple"
        }
      ],
      "name": "createUser",
      "outputs": [],
      "stateMutability": "payable",
      "type": "function"
    },
    {
      "inputs": [
        {
          "internalType": "address",
          "name": "",
          "type": "address"
        }
      ],
      "name": "finesPaid",
      "outputs": [
        {
          "internalType": "uint256",
          "name": "",
          "type": "uint256"
        }
      ],
      "stateMutability": "view",
      "type": "function"
    },
    {
      "inputs": [],
      "name": "getAllUsersAndPoints",
      "outputs": [
        {
          "internalType": "string[]",
          "name": "basenames",
          "type": "string[]"
        },
        {
          "internalType": "uint256[]",
          "name": "points",
          "type": "uint256[]"
        }
      ],
      "stateMutability": "view",
      "type": "function"
    },
    {
      "inputs": [],
      "name": "getAllUsersAndViolations",
      "outputs": [
        {
          "components": [
            {
              "internalType": "address",
              "name": "userAddress",
              "type": "address"
            },
            {
              "internalType": "string",
              "name": "basename",
              "type": "string"
            },
            {
              "components": [
                {
                  "internalType": "uint256",
                  "name": "time",
                  "type": "uint256"
                },
                {
                  "internalType": "string",
                  "name": "violationType",
                  "type": "string"
                },
                {
                  "internalType": "string",
                  "name": "area",
                  "type": "string"
                },
                {
                  "internalType": "address",
                  "name": "reportedBy",
                  "type": "address"
                },
                {
                  "internalType": "bool",
                  "name": "isPaid",
                  "type": "bool"
                },
                {
                  "internalType": "uint256",
                  "name": "fineAmount",
                  "type": "uint256"
                }
              ],
              "internalType": "struct Backend.Violation[]",
              "name": "violations",
              "type": "tuple[]"
            }
          ],
          "internalType": "struct Backend.UserViolationInfo[]",
          "name": "",
          "type": "tuple[]"
        }
      ],
      "stateMutability": "view",
      "type": "function"
    },
    {
      "inputs": [],
      "name": "getContractBalance",
      "outputs": [
        {
          "internalType": "uint256",
          "name": "",
          "type": "uint256"
        }
      ],
      "stateMutability": "view",
      "type": "function"
    },
    {
      "inputs": [],
      "name": "getMyRewards",
      "outputs": [
        {
          "internalType": "uint256",
          "name": "",
          "type": "uint256"
        }
      ],
      "stateMutability": "view",
      "type": "function"
    },
    {
      "inputs": [
        {
          "internalType": "address",
          "name": "_walletAddress",
          "type": "address"
        }
      ],
      "name": "getUserDetailsByAddress",
      "outputs": [
        {
          "internalType": "string",
          "name": "basename",
          "type": "string"
        },
        {
          "internalType": "string",
          "name": "vehicleNumber",
          "type": "string"
        },
        {
          "internalType": "string",
          "name": "vehicleType",
          "type": "string"
        },
        {
          "internalType": "uint256",
          "name": "pendingFines",
          "type": "uint256"
        },
        {
          "internalType": "uint256",
          "name": "rewardBalance",
          "type": "uint256"
        },
        {
          "internalType": "uint256",
          "name": "points",
          "type": "uint256"
        }
      ],
      "stateMutability": "view",
      "type": "function"
    },
    {
      "inputs": [
        {
          "internalType": "string",
          "name": "_basename",
          "type": "string"
        }
      ],
      "name": "getUserDetailsByBasename",
      "outputs": [
        {
          "internalType": "string",
          "name": "basename",
          "type": "string"
        },
        {
          "internalType": "string",
          "name": "vehicleNumber",
          "type": "string"
        },
        {
          "internalType": "string",
          "name": "vehicleType",
          "type": "string"
        },
        {
          "internalType": "address",
          "name": "walletAddress",
          "type": "address"
        },
        {
          "internalType": "uint256",
          "name": "pendingFines",
          "type": "uint256"
        },
        {
          "internalType": "uint256",
          "name": "rewardBalance",
          "type": "uint256"
        },
        {
          "internalType": "uint256",
          "name": "points",
          "type": "uint256"
        }
      ],
      "stateMutability": "view",
      "type": "function"
    },
    {
      "inputs": [
        {
          "internalType": "address",
          "name": "_userAddress",
          "type": "address"
        }
      ],
      "name": "getUserPoints",
      "outputs": [
        {
          "internalType": "uint256",
          "name": "",
          "type": "uint256"
        }
      ],
      "stateMutability": "view",
      "type": "function"
    },
    {
      "inputs": [
        {
          "internalType": "address",
          "name": "_user",
          "type": "address"
        }
      ],
      "name": "getUserViolations",
      "outputs": [
        {
          "components": [
            {
              "internalType": "uint256",
              "name": "time",
              "type": "uint256"
            },
            {
              "internalType": "string",
              "name": "violationType",
              "type": "string"
            },
            {
              "internalType": "string",
              "name": "area",
              "type": "string"
            },
            {
              "internalType": "address",
              "name": "reportedBy",
              "type": "address"
            },
            {
              "internalType": "bool",
              "name": "isPaid",
              "type": "bool"
            },
            {
              "internalType": "uint256",
              "name": "fineAmount",
              "type": "uint256"
            }
          ],
          "internalType": "struct Backend.Violation[]",
          "name": "",
          "type": "tuple[]"
        }
      ],
      "stateMutability": "view",
      "type": "function"
    },
    {
      "inputs": [
        {
          "internalType": "address",
          "name": "_user",
          "type": "address"
        },
        {
          "internalType": "uint256",
          "name": "_violationIndex",
          "type": "uint256"
        },
        {
          "internalType": "uint256",
          "name": "nullifierSeed",
          "type": "uint256"
        },
        {
          "internalType": "uint256",
          "name": "nullifier",
          "type": "uint256"
        },
        {
          "internalType": "uint256",
          "name": "timestamp",
          "type": "uint256"
        },
        {
          "internalType": "uint256[4]",
          "name": "revealArray",
          "type": "uint256[4]"
        },
        {
          "internalType": "uint256[8]",
          "name": "groth16Proof",
          "type": "uint256[8]"
        }
      ],
      "name": "payFine",
      "outputs": [],
      "stateMutability": "payable",
      "type": "function"
    },
    {
      "inputs": [
        {
          "internalType": "address",
          "name": "_user",
          "type": "address"
        },
        {
          "internalType": "string",
          "name": "_violationType",
          "type": "string"
        },
        {
          "internalType": "uint256",
          "name": "_timestamp",
          "type": "uint256"
        },
        {
          "internalType": "string",
          "name": "_area",
          "type": "string"
        }
      ],
      "name": "reportViolation",
      "outputs": [],
      "stateMutability": "nonpayable",
      "type": "function"
    },
    {
      "inputs": [],
      "name": "storedPublicKeyHash",
      "outputs": [
        {
          "internalType": "uint256",
          "name": "",
          "type": "uint256"
        }
      ],
      "stateMutability": "view",
      "type": "function"
    },
    {
      "inputs": [],
      "name": "totalRewardPool",
      "outputs": [
        {
          "internalType": "uint256",
          "name": "",
          "type": "uint256"
        }
      ],
      "stateMutability": "view",
      "type": "function"
    },
    {
      "inputs": [],
      "name": "totalpoints",
      "outputs": [
        {
          "internalType": "uint256",
          "name": "",
          "type": "uint256"
        }
      ],
      "stateMutability": "view",
      "type": "function"
    },
    {
      "inputs": [],
      "name": "updateDailyPoints",
      "outputs": [],
      "stateMutability": "nonpayable",
      "type": "function"
    },
    {
      "inputs": [
        {
          "internalType": "address",
          "name": "_user",
          "type": "address"
        },
        {
          "internalType": "uint256",
          "name": "_points",
          "type": "uint256"
        }
      ],
      "name": "updatePoints",
      "outputs": [],
      "stateMutability": "nonpayable",
      "type": "function"
    },
    {
      "inputs": [
        {
          "internalType": "address",
          "name": "_user",
          "type": "address"
        },
        {
          "internalType": "uint256",
          "name": "_newReward",
          "type": "uint256"
        }
      ],
      "name": "updateUserReward",
      "outputs": [],
      "stateMutability": "nonpayable",
      "type": "function"
    },
    {
      "inputs": [
        {
          "internalType": "address",
          "name": "",
          "type": "address"
        }
      ],
      "name": "users",
      "outputs": [
        {
          "internalType": "string",
          "name": "basename",
          "type": "string"
        },
        {
          "internalType": "string",
          "name": "vehicleRegistrationNumber",
          "type": "string"
        },
        {
          "internalType": "string",
          "name": "vehicleType",
          "type": "string"
        },
        {
          "internalType": "address",
          "name": "walletAddress",
          "type": "address"
        },
        {
          "internalType": "uint256",
          "name": "pendingFines",
          "type": "uint256"
        },
        {
          "internalType": "uint256",
          "name": "rewardBalance",
          "type": "uint256"
        },
        {
          "internalType": "uint256",
          "name": "points",
          "type": "uint256"
        }
      ],
      "stateMutability": "view",
      "type": "function"
    },
    {
      "inputs": [
        {
          "internalType": "string",
          "name": "",
          "type": "string"
        }
      ],
      "name": "vehicleToUser",
      "outputs": [
        {
          "internalType": "address",
          "name": "",
          "type": "address"
        }
      ],
      "stateMutability": "view",
      "type": "function"
    },
    {
      "inputs": [],
      "name": "verifier",
      "outputs": [
        {
          "internalType": "address",
          "name": "",
          "type": "address"
        }
      ],
      "stateMutability": "view",
      "type": "function"
    },
    {
      "inputs": [
        {
          "internalType": "string",
          "name": "",
          "type": "string"
        }
      ],
      "name": "violationFines",
      "outputs": [
        {
          "internalType": "uint256",
          "name": "",
          "type": "uint256"
        }
      ],
      "stateMutability": "view",
      "type": "function"
    }
  ],
  "transactionHash": "0x488b01399b6a9b2704f347cbe22cdfbfa7c3e1fc74a514e0467fc476b1b1919b",
  "args": [
    "0xC4C4d6c21F1D8e4591a69f7662b6EcE0f2f0E61b",
    "0x6E1c757A9E94f5D78c053A0d5Dd6854619095B88",
    "7159552241047614681013946344274430157054820687880791674287250194862110506098"
  ],
  "numDeployments": 13,
  "solcInputHash": "916b00ae94f89a3a6cce4394c0769de7",
  "bytecode": "0x60a06040523480156200001157600080fd5b5060405162002e7238038062002e72833981016040819052620000349162000149565b600180546001600160a01b038085166001600160a01b031992831617909255600080549286169290911691909117905560808190526040516050906009906200008b90675370656564696e6760c01b815260080190565b90815260405190819003602001812091909155665061726b696e6760c81b8152602890600990600701908152604051908190036020018120919091556814995908131a59da1d60ba1b8152603c906009908101908152604051908190036020018120919091556857726f6e672077617960b81b8152605a9060099081019081526040519081900360200190205550506103e86003555060006004556200018a565b80516001600160a01b03811681146200014457600080fd5b919050565b6000806000606084860312156200015f57600080fd5b6200016a846200012c565b92506200017a602085016200012c565b9150604084015190509250925092565b608051612ccc620001a660003960006103f50152612ccc6000f3fe6080604052600436106101665760003560e01c80636f9fb98a116100d1578063a87430ba1161008a578063ce39f21e11610064578063ce39f21e1461048c578063d0b9cf24146104a2578063eca7e54d146104cf578063ff80b1e8146104e257600080fd5b8063a87430ba14610437578063aeefe31f14610457578063cc46d9291461047757600080fd5b80636f9fb98a1461033757806370c511391461034a57806372ff68391461038b57806396ab4bab146103ab5780639c895b0a146103e3578063a2bdedf41461041757600080fd5b80632af07424116101235780632af07424146102675780632b7ac3f3146102875780632f24225c146102a75780635393edab146102ca5780635cd79836146102fc57806364eef57e1461032257600080fd5b8063081bfd5e1461016b57806309c85e24146101965780630a25e2f8146101ba5780630dbffbcd146101e7578063190d2e901461021f578063271fbd0914610252575b600080fd5b34801561017757600080fd5b50610180610502565b60405161018d919061210f565b60405180910390f35b3480156101a257600080fd5b506101ac60035481565b60405190815260200161018d565b3480156101c657600080fd5b506101ac6101d536600461225c565b60086020526000908152604090205481565b3480156101f357600080fd5b50600054610207906001600160a01b031681565b6040516001600160a01b03909116815260200161018d565b34801561022b57600080fd5b5061023f61023a36600461234a565b610874565b60405161018d9796959493929190612387565b6102656102603660046124c1565b610bdb565b005b34801561027357600080fd5b5061026561028236600461252f565b610eab565b34801561029357600080fd5b50600154610207906001600160a01b031681565b3480156102b357600080fd5b506102bc610f52565b60405161018d929190612559565b3480156102d657600080fd5b506102ea6102e536600461225c565b61113b565b60405161018d969594939291906125f4565b34801561030857600080fd5b5033600090815260056020819052604090912001546101ac565b34801561032e57600080fd5b506102656113c3565b34801561034357600080fd5b50476101ac565b34801561035657600080fd5b5061020761036536600461234a565b80516020818301810180516006825292820191909301209152546001600160a01b031681565b34801561039757600080fd5b506102656103a636600461264c565b611661565b3480156103b757600080fd5b506101ac6103c636600461234a565b805160208183018101805160098252928201919093012091525481565b3480156103ef57600080fd5b506101ac7f000000000000000000000000000000000000000000000000000000000000000081565b34801561042357600080fd5b506102076104323660046126ca565b61189f565b34801561044357600080fd5b5061023f61045236600461225c565b6118c9565b34801561046357600080fd5b506101ac61047236600461225c565b611aa6565b34801561048357600080fd5b50610265611b01565b34801561049857600080fd5b506101ac60045481565b3480156104ae57600080fd5b506104c26104bd36600461225c565b611b9d565b60405161018d91906126e3565b6102656104dd36600461279d565b611d76565b3480156104ee57600080fd5b506102656104fd36600461252f565b611fa5565b60025460609060008167ffffffffffffffff8111156105235761052361227e565b60405190808252806020026020018201604052801561058157816020015b61056e604051806060016040528060006001600160a01b0316815260200160608152602001606081525090565b8152602001906001900390816105415790505b50905060005b8281101561086d576000600282815481106105a4576105a4612888565b6000918252602080832090910154604080516060810182526001600160a01b0390921680835280855260058452932080549394509092918301916105e79061289e565b80601f01602080910402602001604051908101604052809291908181526020018280546106139061289e565b80156106605780601f1061063557610100808354040283529160200191610660565b820191906000526020600020905b81548152906001019060200180831161064357829003601f168201915b50505091835250506001600160a01b03831660009081526007602090815260408083208054825181850281018501909352808352948301949193909284015b8282101561083557838290600052602060002090600502016040518060c0016040529081600082015481526020016001820180546106dc9061289e565b80601f01602080910402602001604051908101604052809291908181526020018280546107089061289e565b80156107555780601f1061072a57610100808354040283529160200191610755565b820191906000526020600020905b81548152906001019060200180831161073857829003601f168201915b5050505050815260200160028201805461076e9061289e565b80601f016020809104026020016040519081016040528092919081815260200182805461079a9061289e565b80156107e75780601f106107bc576101008083540402835291602001916107e7565b820191906000526020600020905b8154815290600101906020018083116107ca57829003601f168201915b505050918352505060038201546001600160a01b038116602080840191909152600160a01b90910460ff1615156040830152600490920154606090910152908252600192909201910161069f565b5050505081525083838151811061084e5761084e612888565b6020026020010181905250508080610865906128ee565b915050610587565b5092915050565b60608080600080808080805b60025481101561092a57898051906020012060056000600284815481106108a9576108a9612888565b60009182526020808320909101546001600160a01b03168352820192909252604090810190912090516108dc9190612907565b60405180910390200361091857600281815481106108fc576108fc612888565b6000918252602090912001546001600160a01b0316915061092a565b80610922816128ee565b915050610880565b506001600160a01b0381166109775760405162461bcd60e51b815260206004820152600e60248201526d155cd95c881b9bdd08199bdd5b9960921b60448201526064015b60405180910390fd5b6001600160a01b038116600090815260056020526040808220815160e081019092528054829082906109a89061289e565b80601f01602080910402602001604051908101604052809291908181526020018280546109d49061289e565b8015610a215780601f106109f657610100808354040283529160200191610a21565b820191906000526020600020905b815481529060010190602001808311610a0457829003601f168201915b50505050508152602001600182018054610a3a9061289e565b80601f0160208091040260200160405190810160405280929190818152602001828054610a669061289e565b8015610ab35780601f10610a8857610100808354040283529160200191610ab3565b820191906000526020600020905b815481529060010190602001808311610a9657829003601f168201915b50505050508152602001600282018054610acc9061289e565b80601f0160208091040260200160405190810160405280929190818152602001828054610af89061289e565b8015610b455780601f10610b1a57610100808354040283529160200191610b45565b820191906000526020600020905b815481529060010190602001808311610b2857829003601f168201915b505050505081526020016003820160009054906101000a90046001600160a01b03166001600160a01b03166001600160a01b0316815260200160048201548152602001600582015481526020016006820154815250509050806000015181602001518260400151836060015184608001518560a001518660c0015198509850985098509850985098505050919395979092949650565b6001600160a01b0387811660009081526005602052604090206003015416610c155760405162461bcd60e51b815260040161096e9061297d565b6001600160a01b0387166000908152600760205260409020805487908110610c3f57610c3f612888565b906000526020600020906005020160030160149054906101000a900460ff1615610c9f5760405162461bcd60e51b8152602060048201526011602482015270119a5b9948185b1c9958591e481c185a59607a1b604482015260640161096e565b600080546001600160a01b03166350de0e578787873388886040518763ffffffff1660e01b8152600401610cd8969594939291906129aa565b602060405180830381865afa158015610cf5573d6000803e3d6000fd5b505050506040513d601f19601f82011682018060405250810190610d199190612a26565b905080610d385760405162461bcd60e51b815260040161096e90612a48565b6001600160a01b0388166000908152600760205260408120805489908110610d6257610d62612888565b9060005260206000209060050201905080600401543414610dd65760405162461bcd60e51b815260206004820152602860248201527f5061796d656e74206d75737420626520657175616c20746f207468652066696e6044820152671948185b5bdd5b9d60c21b606482015260840161096e565b60038101805460ff60a01b1916600160a01b1790556001600160a01b0389166000908152600560205260408120600401805491610e1283612a93565b90915550506001600160a01b03891660009081526008602052604081208054349290610e3f908490612aaa565b925050819055503460036000828254610e589190612aaa565b9091555050604080518981523460208201526001600160a01b038b16917f7cf7727a6ea8ffa8b0fa4c048af68e653cbe5008f79a2ab7518ef64d667f9095910160405180910390a2505050505050505050565b6001600160a01b0382811660009081526005602052604090206003015416610ee55760405162461bcd60e51b815260040161096e9061297d565b6001600160a01b0382166000908152600560205260408120600601546004805491929091610f14908490612ac3565b90915550506001600160a01b038216600090815260056020526040812060060182905560048054839290610f49908490612aaa565b90915550505050565b60025460609081908067ffffffffffffffff811115610f7357610f7361227e565b604051908082528060200260200182016040528015610fa657816020015b6060815260200190600190039081610f915790505b5092508067ffffffffffffffff811115610fc257610fc261227e565b604051908082528060200260200182016040528015610feb578160200160208202803683370190505b50915060005b818110156111355760006002828154811061100e5761100e612888565b60009182526020808320909101546001600160a01b0316808352600590915260409091208054919250906110419061289e565b80601f016020809104026020016040519081016040528092919081815260200182805461106d9061289e565b80156110ba5780601f1061108f576101008083540402835291602001916110ba565b820191906000526020600020905b81548152906001019060200180831161109d57829003601f168201915b50505050508583815181106110d1576110d1612888565b602002602001018190525060056000826001600160a01b03166001600160a01b031681526020019081526020016000206006015484838151811061111757611117612888565b6020908102919091010152508061112d816128ee565b915050610ff1565b50509091565b6001600160a01b0381811660009081526005602052604081206003015460609283928392909182918291166111825760405162461bcd60e51b815260040161096e9061297d565b6001600160a01b038716600090815260056020526040808220815160e081019092528054829082906111b39061289e565b80601f01602080910402602001604051908101604052809291908181526020018280546111df9061289e565b801561122c5780601f106112015761010080835404028352916020019161122c565b820191906000526020600020905b81548152906001019060200180831161120f57829003601f168201915b505050505081526020016001820180546112459061289e565b80601f01602080910402602001604051908101604052809291908181526020018280546112719061289e565b80156112be5780601f10611293576101008083540402835291602001916112be565b820191906000526020600020905b8154815290600101906020018083116112a157829003601f168201915b505050505081526020016002820180546112d79061289e565b80601f01602080910402602001604051908101604052809291908181526020018280546113039061289e565b80156113505780601f1061132557610100808354040283529160200191611350565b820191906000526020600020905b81548152906001019060200180831161133357829003601f168201915b505050918352505060038201546001600160a01b0316602080830191909152600483015460408084019190915260058401546060840152600690930154608092830152835190840151928401519184015160a085015160c090950151919d939c50919a5090985091965090945092505050565b336000908152600560205260409020600681015461141a5760405162461bcd60e51b8152602060048201526014602482015273139bc81c1bda5b9d1cc81d1bc818dbdb9d995c9d60621b604482015260640161096e565b6000600354116114635760405162461bcd60e51b815260206004820152601460248201527352657761726420706f6f6c20697320656d70747960601b604482015260640161096e565b6000600454116114b55760405162461bcd60e51b815260206004820152601760248201527f4e6f20706f696e747320696e207468652073797374656d000000000000000000604482015260640161096e565b600060045460035483600601546114cc9190612ad6565b6114d69190612aed565b90508047101561153c5760405162461bcd60e51b815260206004820152602b60248201527f4e6f7420656e6f7567682066756e647320696e20636f6e747261637420746f2060448201526a706179207265776172647360a81b606482015260840161096e565b604051600090339083908381818185875af1925050503d806000811461157e576040519150601f19603f3d011682016040523d82523d6000602084013e611583565b606091505b50509050806115cd5760405162461bcd60e51b815260206004820152601660248201527514995dd85c99081d1c985b9cd9995c8819985a5b195960521b604482015260640161096e565b818360050160008282546115e19190612aaa565b90915550506006830154600480546000906115fd908490612ac3565b90915550506000600684018190556003805484929061161d908490612ac3565b9091555050600583015460405190815233907f401ccfec4c6c7ac3f3b71182750d0f8d73c0d29cc476732b0b21ab0d359da47f9060200160405180910390a2505050565b6001600160a01b038481166000908152600560205260409020600301541661169b5760405162461bcd60e51b815260040161096e9061297d565b60006009846040516116ad9190612b0f565b908152602001604051809103902054116117025760405162461bcd60e51b8152602060048201526016602482015275496e76616c69642076696f6c6174696f6e207479706560501b604482015260640161096e565b428211156117465760405162461bcd60e51b81526020600482015260116024820152700496e76616c69642074696d657374616d7607c1b604482015260640161096e565b60006009846040516117589190612b0f565b908152604080519182900360209081018320546001600160a01b03891660009081526007835283812060c0860185528886528584018a81529486018890523360608701526080860182905260a08601839052805460018181018355918352939091208551600590940201928355925190945090918201906117d99082612b7a565b50604082015160028201906117ee9082612b7a565b50606082015160038201805460808501511515600160a01b026001600160a81b03199091166001600160a01b039384161717905560a090920151600491820155908616600090815260056020526040812090910180549161184e836128ee565b9190505550846001600160a01b03167faa376010f293fc2cf9fd32a4f6f25fcc273f37844a3b33f76cab5211070da18085338460405161189093929190612c3a565b60405180910390a25050505050565b600281815481106118af57600080fd5b6000918252602090912001546001600160a01b0316905081565b6005602052600090815260409020805481906118e49061289e565b80601f01602080910402602001604051908101604052809291908181526020018280546119109061289e565b801561195d5780601f106119325761010080835404028352916020019161195d565b820191906000526020600020905b81548152906001019060200180831161194057829003601f168201915b5050505050908060010180546119729061289e565b80601f016020809104026020016040519081016040528092919081815260200182805461199e9061289e565b80156119eb5780601f106119c0576101008083540402835291602001916119eb565b820191906000526020600020905b8154815290600101906020018083116119ce57829003601f168201915b505050505090806002018054611a009061289e565b80601f0160208091040260200160405190810160405280929190818152602001828054611a2c9061289e565b8015611a795780601f10611a4e57610100808354040283529160200191611a79565b820191906000526020600020905b815481529060010190602001808311611a5c57829003601f168201915b5050505060038301546004840154600585015460069095015493946001600160a01b039092169390925087565b6001600160a01b03818116600090815260056020526040812060030154909116611ae25760405162461bcd60e51b815260040161096e9061297d565b506001600160a01b031660009081526005602052604090206006015490565b60025460005b81811015611b9957600060028281548110611b2457611b24612888565b60009182526020808320909101546001600160a01b0316808352600590915260408220600401549092509003611b86576001600160a01b03811660009081526005602052604081206006018054600a9290611b80908490612aaa565b90915550505b5080611b91816128ee565b915050611b07565b5050565b6001600160a01b0381166000908152600760209081526040808320805482518185028101850190935280835260609492939192909184015b82821015611d6b57838290600052602060002090600502016040518060c001604052908160008201548152602001600182018054611c129061289e565b80601f0160208091040260200160405190810160405280929190818152602001828054611c3e9061289e565b8015611c8b5780601f10611c6057610100808354040283529160200191611c8b565b820191906000526020600020905b815481529060010190602001808311611c6e57829003601f168201915b50505050508152602001600282018054611ca49061289e565b80601f0160208091040260200160405190810160405280929190818152602001828054611cd09061289e565b8015611d1d5780601f10611cf257610100808354040283529160200191611d1d565b820191906000526020600020905b815481529060010190602001808311611d0057829003601f168201915b505050918352505060038201546001600160a01b038116602080840191909152600160a01b90910460ff16151560408301526004909201546060909101529082526001929092019101611bd5565b505050509050919050565b336000908152600560205260409020600301546001600160a01b031615611dd55760405162461bcd60e51b81526020600482015260136024820152725573657220616c72656164792065786973747360681b604482015260640161096e565b6000611df88260000151836020015184604001518560600151866080015161203b565b905080611e175760405162461bcd60e51b815260040161096e90612a48565b6040805160e0810182528681526020808201879052818301869052336060830181905260006080840181905260a08401819052606460c085015290815260059091529190912081518190611e6b9082612b7a565b5060208201516001820190611e809082612b7a565b5060408201516002820190611e959082612b7a565b5060608201516003820180546001600160a01b039092166001600160a01b03199283161790556080830151600483015560a0830151600583015560c090920151600691820155600280546001810182556000919091527f405787fa12a823e0f2b7631cc41b3ba8828b3321ca811111fa75cd3aa3bb5ace01805490921633908117909255604051611f27908790612b0f565b908152602001604051809103902060006101000a8154816001600160a01b0302191690836001600160a01b03160217905550606460046000828254611f6c9190612aaa565b909155505060405133907fa2e1d286e25c6fce64acccdfd7a54d53cce2f617ddff648ab1dbb3458ccdd95b906118909088908890612c68565b6001600160a01b0382811660009081526005602052604090206003015416611fdf5760405162461bcd60e51b815260040161096e9061297d565b6001600160a01b03821660008181526005602081905260409182902001839055517f401ccfec4c6c7ac3f3b71182750d0f8d73c0d29cc476732b0b21ab0d359da47f9061202f9084815260200190565b60405180910390a25050565b600080546001600160a01b03166350de0e578787873388886040518763ffffffff1660e01b8152600401612074969594939291906129aa565b602060405180830381865afa158015612091573d6000803e3d6000fd5b505050506040513d601f19601f820116820180604052508101906120b59190612a26565b9695505050505050565b60005b838110156120da5781810151838201526020016120c2565b50506000910152565b600081518084526120fb8160208601602086016120bf565b601f01601f19169290920160200192915050565b6000602080830181845280855180835260408601915060408160051b870101925083870160005b8281101561223357878503603f19018452815180516001600160a01b039081168752878201516060898901819052612170908901826120e3565b90506040830151925087810360408901528083518083528a830191508a8160051b8401018b8601955060005b8281101561221b57601f198583030184528651805183528d81015160c08f8501526121ca60c08501826120e3565b9050604082015184820360408601526121e382826120e3565b6060848101518b169087015260808085015115159087015260a09384015193909501929092525050958c0195928c019260010161219c565b50995050509588019550505090850190600101612136565b5092979650505050505050565b80356001600160a01b038116811461225757600080fd5b919050565b60006020828403121561226e57600080fd5b61227782612240565b9392505050565b634e487b7160e01b600052604160045260246000fd5b60405160a0810167ffffffffffffffff811182821017156122b7576122b761227e565b60405290565b600082601f8301126122ce57600080fd5b813567ffffffffffffffff808211156122e9576122e961227e565b604051601f8301601f19908116603f011681019082821181831017156123115761231161227e565b8160405283815286602085880101111561232a57600080fd5b836020870160208301376000602085830101528094505050505092915050565b60006020828403121561235c57600080fd5b813567ffffffffffffffff81111561237357600080fd5b61237f848285016122bd565b949350505050565b60e08152600061239a60e083018a6120e3565b82810360208401526123ac818a6120e3565b905082810360408401526123c081896120e3565b6001600160a01b039790971660608401525050608081019390935260a083019190915260c0909101529392505050565b600082601f83011261240157600080fd5b6040516080810181811067ffffffffffffffff821117156124245761242461227e565b60405280608084018581111561243957600080fd5b845b8181101561245357803583526020928301920161243b565b509195945050505050565b600082601f83011261246f57600080fd5b60405161010080820182811067ffffffffffffffff821117156124945761249461227e565b604052830181858211156124a757600080fd5b845b828110156124535780358252602091820191016124a9565b6000806000806000806000610220888a0312156124dd57600080fd5b6124e688612240565b9650602088013595506040880135945060608801359350608088013592506125118960a08a016123f0565b9150612521896101208a0161245e565b905092959891949750929550565b6000806040838503121561254257600080fd5b61254b83612240565b946020939093013593505050565b6000604082016040835280855180835260608501915060608160051b8601019250602080880160005b838110156125b057605f1988870301855261259e8683516120e3565b95509382019390820190600101612582565b50508584038187015286518085528782019482019350915060005b828110156125e7578451845293810193928101926001016125cb565b5091979650505050505050565b60c08152600061260760c08301896120e3565b828103602084015261261981896120e3565b9050828103604084015261262d81886120e3565b60608401969096525050608081019290925260a0909101529392505050565b6000806000806080858703121561266257600080fd5b61266b85612240565b9350602085013567ffffffffffffffff8082111561268857600080fd5b612694888389016122bd565b94506040870135935060608701359150808211156126b157600080fd5b506126be878288016122bd565b91505092959194509250565b6000602082840312156126dc57600080fd5b5035919050565b60006020808301818452808551808352604092508286019150828160051b87010184880160005b8381101561278f57603f19898403018552815160c08151855288820151818a870152612738828701826120e3565b915050878201518582038987015261275082826120e3565b6060848101516001600160a01b03169088015260808085015115159088015260a09384015193909601929092525050938601939086019060010161270a565b509098975050505050505050565b6000806000808486036102408112156127b557600080fd5b853567ffffffffffffffff808211156127cd57600080fd5b6127d989838a016122bd565b965060208801359150808211156127ef57600080fd5b6127fb89838a016122bd565b9550604088013591508082111561281157600080fd5b5061281e888289016122bd565b9350506101e0605f198201121561283457600080fd5b5061283d612294565b606086013581526080860135602082015260a086013560408201526128658760c088016123f0565b606082015261287887610140880161245e565b6080820152939692955090935050565b634e487b7160e01b600052603260045260246000fd5b600181811c908216806128b257607f821691505b6020821081036128d257634e487b7160e01b600052602260045260246000fd5b50919050565b634e487b7160e01b600052601160045260246000fd5b600060018201612900576129006128d8565b5060010190565b60008083546129158161289e565b6001828116801561292d576001811461294257612971565b60ff1984168752821515830287019450612971565b8760005260208060002060005b858110156129685781548a82015290840190820161294f565b50505082870194505b50929695505050505050565b602080825260139082015272155cd95c88191bd95cc81b9bdd08195e1a5cdd606a1b604082015260600190565b60006102008201905087825260208781840152866040840152856060840152608083018560005b60048110156129ee578151835291830191908301906001016129d1565b50505061010083018460005b6008811015612a17578151835291830191908301906001016129fa565b50505050979650505050505050565b600060208284031215612a3857600080fd5b8151801515811461227757600080fd5b6020808252602b908201527f5b416e6f6e41616468616172566f74655d3a2070726f6f662073656e7420697360408201526a103737ba103b30b634b21760a91b606082015260800190565b600081612aa257612aa26128d8565b506000190190565b80820180821115612abd57612abd6128d8565b92915050565b81810381811115612abd57612abd6128d8565b8082028115828204841417612abd57612abd6128d8565b600082612b0a57634e487b7160e01b600052601260045260246000fd5b500490565b60008251612b218184602087016120bf565b9190910192915050565b601f821115612b7557600081815260208120601f850160051c81016020861015612b525750805b601f850160051c820191505b81811015612b7157828155600101612b5e565b5050505b505050565b815167ffffffffffffffff811115612b9457612b9461227e565b612ba881612ba2845461289e565b84612b2b565b602080601f831160018114612bdd5760008415612bc55750858301515b600019600386901b1c1916600185901b178555612b71565b600085815260208120601f198616915b82811015612c0c57888601518255948401946001909101908401612bed565b5085821015612c2a5787850151600019600388901b60f8161c191681555b5050505050600190811b01905550565b606081526000612c4d60608301866120e3565b6001600160a01b039490941660208301525060400152919050565b604081526000612c7b60408301856120e3565b8281036020840152612c8d81856120e3565b9594505050505056fea2646970667358221220d2db76e5313b6f6b7a1f67531db73661e5b51332b4be7cb66b306e1f00d5571864736f6c63430008140033",
  "devdoc": {
    "kind": "dev",
    "methods": {},
    "version": 1
  },
  "userdoc": {
    "kind": "user",
    "methods": {},
    "version": 1
  },
  "storageLayout": {
    "storage": [
      {
        "astId": 45,
        "contract": "contracts/Backend.sol:Backend",
        "label": "anonAadhaarVerifierAddr",
        "offset": 0,
        "slot": "0",
        "type": "t_address"
      },
      {
        "astId": 47,
        "contract": "contracts/Backend.sol:Backend",
        "label": "verifier",
        "offset": 0,
        "slot": "1",
        "type": "t_address"
      },
      {
        "astId": 52,
        "contract": "contracts/Backend.sol:Backend",
        "label": "allUsers",
        "offset": 0,
        "slot": "2",
        "type": "t_array(t_address)dyn_storage"
      },
      {
        "astId": 97,
        "contract": "contracts/Backend.sol:Backend",
        "label": "totalRewardPool",
        "offset": 0,
        "slot": "3",
        "type": "t_uint256"
      },
      {
        "astId": 99,
        "contract": "contracts/Backend.sol:Backend",
        "label": "totalpoints",
        "offset": 0,
        "slot": "4",
        "type": "t_uint256"
      },
      {
        "astId": 104,
        "contract": "contracts/Backend.sol:Backend",
        "label": "users",
        "offset": 0,
        "slot": "5",
        "type": "t_mapping(t_address,t_struct(User)67_storage)"
      },
      {
        "astId": 108,
        "contract": "contracts/Backend.sol:Backend",
        "label": "vehicleToUser",
        "offset": 0,
        "slot": "6",
        "type": "t_mapping(t_string_memory_ptr,t_address)"
      },
      {
        "astId": 114,
        "contract": "contracts/Backend.sol:Backend",
        "label": "userViolations",
        "offset": 0,
        "slot": "7",
        "type": "t_mapping(t_address,t_array(t_struct(Violation)80_storage)dyn_storage)"
      },
      {
        "astId": 118,
        "contract": "contracts/Backend.sol:Backend",
        "label": "finesPaid",
        "offset": 0,
        "slot": "8",
        "type": "t_mapping(t_address,t_uint256)"
      },
      {
        "astId": 122,
        "contract": "contracts/Backend.sol:Backend",
        "label": "violationFines",
        "offset": 0,
        "slot": "9",
        "type": "t_mapping(t_string_memory_ptr,t_uint256)"
      }
    ],
    "types": {
      "t_address": {
        "encoding": "inplace",
        "label": "address",
        "numberOfBytes": "20"
      },
      "t_array(t_address)dyn_storage": {
        "base": "t_address",
        "encoding": "dynamic_array",
        "label": "address[]",
        "numberOfBytes": "32"
      },
      "t_array(t_struct(Violation)80_storage)dyn_storage": {
        "base": "t_struct(Violation)80_storage",
        "encoding": "dynamic_array",
        "label": "struct Backend.Violation[]",
        "numberOfBytes": "32"
      },
      "t_bool": {
        "encoding": "inplace",
        "label": "bool",
        "numberOfBytes": "1"
      },
      "t_mapping(t_address,t_array(t_struct(Violation)80_storage)dyn_storage)": {
        "encoding": "mapping",
        "key": "t_address",
        "label": "mapping(address => struct Backend.Violation[])",
        "numberOfBytes": "32",
        "value": "t_array(t_struct(Violation)80_storage)dyn_storage"
      },
      "t_mapping(t_address,t_struct(User)67_storage)": {
        "encoding": "mapping",
        "key": "t_address",
        "label": "mapping(address => struct Backend.User)",
        "numberOfBytes": "32",
        "value": "t_struct(User)67_storage"
      },
      "t_mapping(t_address,t_uint256)": {
        "encoding": "mapping",
        "key": "t_address",
        "label": "mapping(address => uint256)",
        "numberOfBytes": "32",
        "value": "t_uint256"
      },
      "t_mapping(t_string_memory_ptr,t_address)": {
        "encoding": "mapping",
        "key": "t_string_memory_ptr",
        "label": "mapping(string => address)",
        "numberOfBytes": "32",
        "value": "t_address"
      },
      "t_mapping(t_string_memory_ptr,t_uint256)": {
        "encoding": "mapping",
        "key": "t_string_memory_ptr",
        "label": "mapping(string => uint256)",
        "numberOfBytes": "32",
        "value": "t_uint256"
      },
      "t_string_memory_ptr": {
        "encoding": "bytes",
        "label": "string",
        "numberOfBytes": "32"
      },
      "t_string_storage": {
        "encoding": "bytes",
        "label": "string",
        "numberOfBytes": "32"
      },
      "t_struct(User)67_storage": {
        "encoding": "inplace",
        "label": "struct Backend.User",
        "members": [
          {
            "astId": 54,
            "contract": "contracts/Backend.sol:Backend",
            "label": "basename",
            "offset": 0,
            "slot": "0",
            "type": "t_string_storage"
          },
          {
            "astId": 56,
            "contract": "contracts/Backend.sol:Backend",
            "label": "vehicleRegistrationNumber",
            "offset": 0,
            "slot": "1",
            "type": "t_string_storage"
          },
          {
            "astId": 58,
            "contract": "contracts/Backend.sol:Backend",
            "label": "vehicleType",
            "offset": 0,
            "slot": "2",
            "type": "t_string_storage"
          },
          {
            "astId": 60,
            "contract": "contracts/Backend.sol:Backend",
            "label": "walletAddress",
            "offset": 0,
            "slot": "3",
            "type": "t_address"
          },
          {
            "astId": 62,
            "contract": "contracts/Backend.sol:Backend",
            "label": "pendingFines",
            "offset": 0,
            "slot": "4",
            "type": "t_uint256"
          },
          {
            "astId": 64,
            "contract": "contracts/Backend.sol:Backend",
            "label": "rewardBalance",
            "offset": 0,
            "slot": "5",
            "type": "t_uint256"
          },
          {
            "astId": 66,
            "contract": "contracts/Backend.sol:Backend",
            "label": "points",
            "offset": 0,
            "slot": "6",
            "type": "t_uint256"
          }
        ],
        "numberOfBytes": "224"
      },
      "t_struct(Violation)80_storage": {
        "encoding": "inplace",
        "label": "struct Backend.Violation",
        "members": [
          {
            "astId": 69,
            "contract": "contracts/Backend.sol:Backend",
            "label": "time",
            "offset": 0,
            "slot": "0",
            "type": "t_uint256"
          },
          {
            "astId": 71,
            "contract": "contracts/Backend.sol:Backend",
            "label": "violationType",
            "offset": 0,
            "slot": "1",
            "type": "t_string_storage"
          },
          {
            "astId": 73,
            "contract": "contracts/Backend.sol:Backend",
            "label": "area",
            "offset": 0,
            "slot": "2",
            "type": "t_string_storage"
          },
          {
            "astId": 75,
            "contract": "contracts/Backend.sol:Backend",
            "label": "reportedBy",
            "offset": 0,
            "slot": "3",
            "type": "t_address"
          },
          {
            "astId": 77,
            "contract": "contracts/Backend.sol:Backend",
            "label": "isPaid",
            "offset": 20,
            "slot": "3",
            "type": "t_bool"
          },
          {
            "astId": 79,
            "contract": "contracts/Backend.sol:Backend",
            "label": "fineAmount",
            "offset": 0,
            "slot": "4",
            "type": "t_uint256"
          }
        ],
        "numberOfBytes": "160"
      },
      "t_uint256": {
        "encoding": "inplace",
        "label": "uint256",
        "numberOfBytes": "32"
      }
    }
  }
}