{
  "address": "0x56fa932381d273B46D21dA571CED7Edf070dff1E",
  "abi": [
    {
      "inputs": [
        {
          "internalType": "address",
          "name": "_verifierAddr",
          "type": "address"
        }
      ],
      "stateMutability": "nonpayable",
      "type": "constructor"
    },
    {
      "anonymous": false,
      "inputs": [
        {
          "indexed": true,
          "internalType": "address",
          "name": "user",
          "type": "address"
        },
        {
          "indexed": false,
          "internalType": "uint256",
          "name": "violationIndex",
          "type": "uint256"
        },
        {
          "indexed": false,
          "internalType": "uint256",
          "name": "amount",
          "type": "uint256"
        }
      ],
      "name": "FinePaid",
      "type": "event"
    },
    {
      "anonymous": false,
      "inputs": [
        {
          "indexed": true,
          "internalType": "address",
          "name": "userAddress",
          "type": "address"
        },
        {
          "indexed": false,
          "internalType": "string",
          "name": "name",
          "type": "string"
        },
        {
          "indexed": false,
          "internalType": "string",
          "name": "vehicleRegistrationNumber",
          "type": "string"
        }
      ],
      "name": "UserCreated",
      "type": "event"
    },
    {
      "anonymous": false,
      "inputs": [
        {
          "indexed": true,
          "internalType": "address",
          "name": "user",
          "type": "address"
        },
        {
          "indexed": false,
          "internalType": "string",
          "name": "violationType",
          "type": "string"
        },
        {
          "indexed": false,
          "internalType": "address",
          "name": "reportedBy",
          "type": "address"
        },
        {
          "indexed": false,
          "internalType": "uint256",
          "name": "fineAmount",
          "type": "uint256"
        }
      ],
      "name": "ViolationReported",
      "type": "event"
    },
    {
      "inputs": [],
      "name": "anonAadhaarVerifierAddr",
      "outputs": [
        {
          "internalType": "address",
          "name": "",
          "type": "address"
        }
      ],
      "stateMutability": "view",
      "type": "function"
    },
    {
      "inputs": [
        {
          "internalType": "string",
          "name": "_name",
          "type": "string"
        },
        {
          "internalType": "string",
          "name": "_vehicleRegistrationNumber",
          "type": "string"
        },
        {
          "internalType": "uint256",
          "name": "nullifierSeed",
          "type": "uint256"
        },
        {
          "internalType": "uint256",
          "name": "nullifier",
          "type": "uint256"
        },
        {
          "internalType": "uint256",
          "name": "timestamp",
          "type": "uint256"
        },
        {
          "internalType": "uint256[4]",
          "name": "revealArray",
          "type": "uint256[4]"
        },
        {
          "internalType": "uint256[8]",
          "name": "groth16Proof",
          "type": "uint256[8]"
        }
      ],
      "name": "createUser",
      "outputs": [],
      "stateMutability": "payable",
      "type": "function"
    },
    {
      "inputs": [
        {
          "internalType": "address",
          "name": "",
          "type": "address"
        }
      ],
      "name": "finesPaid",
      "outputs": [
        {
          "internalType": "uint256",
          "name": "",
          "type": "uint256"
        }
      ],
      "stateMutability": "view",
      "type": "function"
    },
    {
      "inputs": [
        {
          "internalType": "address",
          "name": "_user",
          "type": "address"
        }
      ],
      "name": "getUserViolations",
      "outputs": [
        {
          "components": [
            {
              "internalType": "uint256",
              "name": "time",
              "type": "uint256"
            },
            {
              "internalType": "string",
              "name": "violationType",
              "type": "string"
            },
            {
              "internalType": "string",
              "name": "area",
              "type": "string"
            },
            {
              "internalType": "address",
              "name": "reportedBy",
              "type": "address"
            },
            {
              "internalType": "bool",
              "name": "isPaid",
              "type": "bool"
            },
            {
              "internalType": "uint256",
              "name": "fineAmount",
              "type": "uint256"
            }
          ],
          "internalType": "struct Backend.Violation[]",
          "name": "",
          "type": "tuple[]"
        }
      ],
      "stateMutability": "view",
      "type": "function"
    },
    {
      "inputs": [
        {
          "internalType": "address",
          "name": "_user",
          "type": "address"
        },
        {
          "internalType": "uint256",
          "name": "_violationIndex",
          "type": "uint256"
        },
        {
          "internalType": "uint256",
          "name": "nullifierSeed",
          "type": "uint256"
        },
        {
          "internalType": "uint256",
          "name": "nullifier",
          "type": "uint256"
        },
        {
          "internalType": "uint256",
          "name": "timestamp",
          "type": "uint256"
        },
        {
          "internalType": "uint256[4]",
          "name": "revealArray",
          "type": "uint256[4]"
        },
        {
          "internalType": "uint256[8]",
          "name": "groth16Proof",
          "type": "uint256[8]"
        }
      ],
      "name": "payFine",
      "outputs": [],
      "stateMutability": "payable",
      "type": "function"
    },
    {
      "inputs": [
        {
          "internalType": "address",
          "name": "_user",
          "type": "address"
        },
        {
          "internalType": "string",
          "name": "_violationType",
          "type": "string"
        },
        {
          "internalType": "uint256",
          "name": "_timestamp",
          "type": "uint256"
        },
        {
          "internalType": "string",
          "name": "_area",
          "type": "string"
        }
      ],
      "name": "reportViolation",
      "outputs": [],
      "stateMutability": "nonpayable",
      "type": "function"
    },
    {
      "inputs": [
        {
          "internalType": "address",
          "name": "",
          "type": "address"
        }
      ],
      "name": "users",
      "outputs": [
        {
          "internalType": "string",
          "name": "name",
          "type": "string"
        },
        {
          "internalType": "string",
          "name": "vehicleRegistrationNumber",
          "type": "string"
        },
        {
          "internalType": "address",
          "name": "walletAddress",
          "type": "address"
        },
        {
          "internalType": "uint256",
          "name": "pendingFines",
          "type": "uint256"
        }
      ],
      "stateMutability": "view",
      "type": "function"
    },
    {
      "inputs": [
        {
          "internalType": "string",
          "name": "",
          "type": "string"
        }
      ],
      "name": "vehicleToUser",
      "outputs": [
        {
          "internalType": "address",
          "name": "",
          "type": "address"
        }
      ],
      "stateMutability": "view",
      "type": "function"
    },
    {
      "inputs": [
        {
          "internalType": "string",
          "name": "",
          "type": "string"
        }
      ],
      "name": "violationFines",
      "outputs": [
        {
          "internalType": "uint256",
          "name": "",
          "type": "uint256"
        }
      ],
      "stateMutability": "view",
      "type": "function"
    }
  ],
  "transactionHash": "0x6becba4fb619c62d2fb8b72bec2ab7740c68158cfbac5c94d7a310ea019cfa2b",
  "args": [
    "0xC4C4d6c21F1D8e4591a69f7662b6EcE0f2f0E61b"
  ],
  "numDeployments": 1,
  "solcInputHash": "e49439e14f51400ddac63db3e0ea59a9",
  "bytecode": "0x608060405234801561001057600080fd5b506040516115cd3803806115cd83398101604081905261002f916100f9565b600080546001600160a01b0319166001600160a01b038316179055604051675370656564696e6760c01b815260c89060059060080190815260405190819003602001812091909155665061726b696e6760c81b8152603290600590600701908152604051908190036020018120919091556814995908131a59da1d60ba1b8152603290600590600901908152604051908190036020018120919091556857726f6e672077617960b81b81526032906005906009019081526040519081900360200190205550610129565b60006020828403121561010b57600080fd5b81516001600160a01b038116811461012257600080fd5b9392505050565b611495806101386000396000f3fe6080604052600436106100865760003560e01c806370c511391161005957806370c511391461012b57806372ff68391461016c57806396ab4bab1461018c578063a87430ba146101c4578063d0b9cf24146101f457600080fd5b80630a25e2f81461008b5780630dbffbcd146100cb578063139911c514610103578063271fbd0914610118575b600080fd5b34801561009757600080fd5b506100b86100a6366004610cad565b60046020526000908152604090205481565b6040519081526020015b60405180910390f35b3480156100d757600080fd5b506000546100eb906001600160a01b031681565b6040516001600160a01b0390911681526020016100c2565b610116610111366004610e43565b610221565b005b610116610126366004610ee9565b610431565b34801561013757600080fd5b506100eb610146366004610f39565b80516020818301810180516002825292820191909301209152546001600160a01b031681565b34801561017857600080fd5b50610116610187366004610f76565b61070f565b34801561019857600080fd5b506100b86101a7366004610f39565b805160208183018101805160058252928201919093012091525481565b3480156101d057600080fd5b506101e46101df366004610cad565b610976565b6040516100c29493929190611044565b34801561020057600080fd5b5061021461020f366004610cad565b610ab8565b6040516100c29190611086565b336000908152600160205260409020600201546001600160a01b0316156102855760405162461bcd60e51b81526020600482015260136024820152725573657220616c72656164792065786973747360681b60448201526064015b60405180910390fd5b600080546001600160a01b03166350de0e578787873388886040518763ffffffff1660e01b81526004016102be96959493929190611140565b602060405180830381865afa1580156102db573d6000803e3d6000fd5b505050506040513d601f19601f820116820180604052508101906102ff91906111bc565b90508061031e5760405162461bcd60e51b815260040161027c906111de565b6040805160808101825289815260208082018a9052338284018190526000606084018190529081526001909152919091208151819061035d90826112b2565b506020820151600182019061037290826112b2565b5060408201518160020160006101000a8154816001600160a01b0302191690836001600160a01b0316021790555060608201518160030155905050336002886040516103be9190611372565b90815260405190819003602001812080546001600160a01b03939093166001600160a01b03199093169290921790915533907fa2e1d286e25c6fce64acccdfd7a54d53cce2f617ddff648ab1dbb3458ccdd95b9061041f908b908b9061138e565b60405180910390a25050505050505050565b6001600160a01b03878116600090815260016020526040902060020154166104915760405162461bcd60e51b8152602060048201526013602482015272155cd95c88191bd95cc81b9bdd08195e1a5cdd606a1b604482015260640161027c565b6001600160a01b03871660009081526003602052604090208054879081106104bb576104bb6113bc565b906000526020600020906005020160030160149054906101000a900460ff161561051b5760405162461bcd60e51b8152602060048201526011602482015270119a5b9948185b1c9958591e481c185a59607a1b604482015260640161027c565b600080546001600160a01b03166350de0e578787873388886040518763ffffffff1660e01b815260040161055496959493929190611140565b602060405180830381865afa158015610571573d6000803e3d6000fd5b505050506040513d601f19601f8201168201806040525081019061059591906111bc565b9050806105b45760405162461bcd60e51b815260040161027c906111de565b6001600160a01b03881660009081526003602052604081208054899081106105de576105de6113bc565b90600052602060002090600502019050806004015434146106525760405162461bcd60e51b815260206004820152602860248201527f5061796d656e74206d75737420626520657175616c20746f207468652066696e6044820152671948185b5bdd5b9d60c21b606482015260840161027c565b6003808201805460ff60a01b1916600160a01b1790556001600160a01b038a16600090815260016020526040812090910180549161068f836113e8565b90915550506001600160a01b038916600090815260046020526040812080543492906106bc9084906113ff565b9091555050604080518981523460208201526001600160a01b038b16917f7cf7727a6ea8ffa8b0fa4c048af68e653cbe5008f79a2ab7518ef64d667f9095910160405180910390a2505050505050505050565b6001600160a01b038481166000908152600160205260409020600201541661076f5760405162461bcd60e51b8152602060048201526013602482015272155cd95c88191bd95cc81b9bdd08195e1a5cdd606a1b604482015260640161027c565b60006005846040516107819190611372565b908152602001604051809103902054116107d65760405162461bcd60e51b8152602060048201526016602482015275496e76616c69642076696f6c6174696f6e207479706560501b604482015260640161027c565b4282111561081a5760405162461bcd60e51b81526020600482015260116024820152700496e76616c69642074696d657374616d7607c1b604482015260640161027c565b600060058460405161082c9190611372565b908152604080519182900360209081018320546001600160a01b03891660009081526003835283812060c0860185528886528584018a81529486018890523360608701526080860182905260a08601839052805460018181018355918352939091208551600590940201928355925190945090918201906108ad90826112b2565b50604082015160028201906108c290826112b2565b5060608201516003808301805460808601511515600160a01b026001600160a81b03199091166001600160a01b039485161717905560a0909301516004909201919091558616600090815260016020526040812090910180549161092583611418565b9190505550846001600160a01b03167faa376010f293fc2cf9fd32a4f6f25fcc273f37844a3b33f76cab5211070da18085338460405161096793929190611431565b60405180910390a25050505050565b60016020526000908152604090208054819061099190611229565b80601f01602080910402602001604051908101604052809291908181526020018280546109bd90611229565b8015610a0a5780601f106109df57610100808354040283529160200191610a0a565b820191906000526020600020905b8154815290600101906020018083116109ed57829003601f168201915b505050505090806001018054610a1f90611229565b80601f0160208091040260200160405190810160405280929190818152602001828054610a4b90611229565b8015610a985780601f10610a6d57610100808354040283529160200191610a98565b820191906000526020600020905b815481529060010190602001808311610a7b57829003601f168201915b50505050600283015460039093015491926001600160a01b031691905084565b6001600160a01b0381166000908152600360209081526040808320805482518185028101850190935280835260609492939192909184015b82821015610c8657838290600052602060002090600502016040518060c001604052908160008201548152602001600182018054610b2d90611229565b80601f0160208091040260200160405190810160405280929190818152602001828054610b5990611229565b8015610ba65780601f10610b7b57610100808354040283529160200191610ba6565b820191906000526020600020905b815481529060010190602001808311610b8957829003601f168201915b50505050508152602001600282018054610bbf90611229565b80601f0160208091040260200160405190810160405280929190818152602001828054610beb90611229565b8015610c385780601f10610c0d57610100808354040283529160200191610c38565b820191906000526020600020905b815481529060010190602001808311610c1b57829003601f168201915b505050918352505060038201546001600160a01b038116602080840191909152600160a01b90910460ff16151560408301526004909201546060909101529082526001929092019101610af0565b505050509050919050565b80356001600160a01b0381168114610ca857600080fd5b919050565b600060208284031215610cbf57600080fd5b610cc882610c91565b9392505050565b634e487b7160e01b600052604160045260246000fd5b600082601f830112610cf657600080fd5b813567ffffffffffffffff80821115610d1157610d11610ccf565b604051601f8301601f19908116603f01168101908282118183101715610d3957610d39610ccf565b81604052838152866020858801011115610d5257600080fd5b836020870160208301376000602085830101528094505050505092915050565b600082601f830112610d8357600080fd5b6040516080810181811067ffffffffffffffff82111715610da657610da6610ccf565b604052806080840185811115610dbb57600080fd5b845b81811015610dd5578035835260209283019201610dbd565b509195945050505050565b600082601f830112610df157600080fd5b60405161010080820182811067ffffffffffffffff82111715610e1657610e16610ccf565b60405283018185821115610e2957600080fd5b845b82811015610dd5578035825260209182019101610e2b565b6000806000806000806000610220888a031215610e5f57600080fd5b873567ffffffffffffffff80821115610e7757600080fd5b610e838b838c01610ce5565b985060208a0135915080821115610e9957600080fd5b50610ea68a828b01610ce5565b965050604088013594506060880135935060808801359250610ecb8960a08a01610d72565b9150610edb896101208a01610de0565b905092959891949750929550565b6000806000806000806000610220888a031215610f0557600080fd5b610f0e88610c91565b965060208801359550604088013594506060880135935060808801359250610ecb8960a08a01610d72565b600060208284031215610f4b57600080fd5b813567ffffffffffffffff811115610f6257600080fd5b610f6e84828501610ce5565b949350505050565b60008060008060808587031215610f8c57600080fd5b610f9585610c91565b9350602085013567ffffffffffffffff80821115610fb257600080fd5b610fbe88838901610ce5565b9450604087013593506060870135915080821115610fdb57600080fd5b50610fe887828801610ce5565b91505092959194509250565b60005b8381101561100f578181015183820152602001610ff7565b50506000910152565b60008151808452611030816020860160208601610ff4565b601f01601f19169290920160200192915050565b6080815260006110576080830187611018565b82810360208401526110698187611018565b6001600160a01b0395909516604084015250506060015292915050565b60006020808301818452808551808352604092508286019150828160051b87010184880160005b8381101561113257603f19898403018552815160c08151855288820151818a8701526110db82870182611018565b91505087820151858203898701526110f38282611018565b6060848101516001600160a01b03169088015260808085015115159088015260a0938401519390960192909252505093860193908601906001016110ad565b509098975050505050505050565b60006102008201905087825260208781840152866040840152856060840152608083018560005b600481101561118457815183529183019190830190600101611167565b50505061010083018460005b60088110156111ad57815183529183019190830190600101611190565b50505050979650505050505050565b6000602082840312156111ce57600080fd5b81518015158114610cc857600080fd5b6020808252602b908201527f5b416e6f6e41616468616172566f74655d3a2070726f6f662073656e7420697360408201526a103737ba103b30b634b21760a91b606082015260800190565b600181811c9082168061123d57607f821691505b60208210810361125d57634e487b7160e01b600052602260045260246000fd5b50919050565b601f8211156112ad57600081815260208120601f850160051c8101602086101561128a5750805b601f850160051c820191505b818110156112a957828155600101611296565b5050505b505050565b815167ffffffffffffffff8111156112cc576112cc610ccf565b6112e0816112da8454611229565b84611263565b602080601f83116001811461131557600084156112fd5750858301515b600019600386901b1c1916600185901b1785556112a9565b600085815260208120601f198616915b8281101561134457888601518255948401946001909101908401611325565b50858210156113625787850151600019600388901b60f8161c191681555b5050505050600190811b01905550565b60008251611384818460208701610ff4565b9190910192915050565b6040815260006113a16040830185611018565b82810360208401526113b38185611018565b95945050505050565b634e487b7160e01b600052603260045260246000fd5b634e487b7160e01b600052601160045260246000fd5b6000816113f7576113f76113d2565b506000190190565b80820180821115611412576114126113d2565b92915050565b60006001820161142a5761142a6113d2565b5060010190565b6060815260006114446060830186611018565b6001600160a01b03949094166020830152506040015291905056fea2646970667358221220baa7b9562c3644ae7daea2732e9a986d12a212e63aada247ec66febe1eb7e7ba64736f6c63430008140033",
  "devdoc": {
    "kind": "dev",
    "methods": {},
    "version": 1
  },
  "userdoc": {
    "kind": "user",
    "methods": {},
    "version": 1
  },
  "storageLayout": {
    "storage": [
      {
        "astId": 43,
        "contract": "contracts/Backend.sol:Backend",
        "label": "anonAadhaarVerifierAddr",
        "offset": 0,
        "slot": "0",
        "type": "t_address"
      },
      {
        "astId": 70,
        "contract": "contracts/Backend.sol:Backend",
        "label": "users",
        "offset": 0,
        "slot": "1",
        "type": "t_mapping(t_address,t_struct(User)52_storage)"
      },
      {
        "astId": 74,
        "contract": "contracts/Backend.sol:Backend",
        "label": "vehicleToUser",
        "offset": 0,
        "slot": "2",
        "type": "t_mapping(t_string_memory_ptr,t_address)"
      },
      {
        "astId": 80,
        "contract": "contracts/Backend.sol:Backend",
        "label": "userViolations",
        "offset": 0,
        "slot": "3",
        "type": "t_mapping(t_address,t_array(t_struct(Violation)65_storage)dyn_storage)"
      },
      {
        "astId": 84,
        "contract": "contracts/Backend.sol:Backend",
        "label": "finesPaid",
        "offset": 0,
        "slot": "4",
        "type": "t_mapping(t_address,t_uint256)"
      },
      {
        "astId": 88,
        "contract": "contracts/Backend.sol:Backend",
        "label": "violationFines",
        "offset": 0,
        "slot": "5",
        "type": "t_mapping(t_string_memory_ptr,t_uint256)"
      }
    ],
    "types": {
      "t_address": {
        "encoding": "inplace",
        "label": "address",
        "numberOfBytes": "20"
      },
      "t_array(t_struct(Violation)65_storage)dyn_storage": {
        "base": "t_struct(Violation)65_storage",
        "encoding": "dynamic_array",
        "label": "struct Backend.Violation[]",
        "numberOfBytes": "32"
      },
      "t_bool": {
        "encoding": "inplace",
        "label": "bool",
        "numberOfBytes": "1"
      },
      "t_mapping(t_address,t_array(t_struct(Violation)65_storage)dyn_storage)": {
        "encoding": "mapping",
        "key": "t_address",
        "label": "mapping(address => struct Backend.Violation[])",
        "numberOfBytes": "32",
        "value": "t_array(t_struct(Violation)65_storage)dyn_storage"
      },
      "t_mapping(t_address,t_struct(User)52_storage)": {
        "encoding": "mapping",
        "key": "t_address",
        "label": "mapping(address => struct Backend.User)",
        "numberOfBytes": "32",
        "value": "t_struct(User)52_storage"
      },
      "t_mapping(t_address,t_uint256)": {
        "encoding": "mapping",
        "key": "t_address",
        "label": "mapping(address => uint256)",
        "numberOfBytes": "32",
        "value": "t_uint256"
      },
      "t_mapping(t_string_memory_ptr,t_address)": {
        "encoding": "mapping",
        "key": "t_string_memory_ptr",
        "label": "mapping(string => address)",
        "numberOfBytes": "32",
        "value": "t_address"
      },
      "t_mapping(t_string_memory_ptr,t_uint256)": {
        "encoding": "mapping",
        "key": "t_string_memory_ptr",
        "label": "mapping(string => uint256)",
        "numberOfBytes": "32",
        "value": "t_uint256"
      },
      "t_string_memory_ptr": {
        "encoding": "bytes",
        "label": "string",
        "numberOfBytes": "32"
      },
      "t_string_storage": {
        "encoding": "bytes",
        "label": "string",
        "numberOfBytes": "32"
      },
      "t_struct(User)52_storage": {
        "encoding": "inplace",
        "label": "struct Backend.User",
        "members": [
          {
            "astId": 45,
            "contract": "contracts/Backend.sol:Backend",
            "label": "name",
            "offset": 0,
            "slot": "0",
            "type": "t_string_storage"
          },
          {
            "astId": 47,
            "contract": "contracts/Backend.sol:Backend",
            "label": "vehicleRegistrationNumber",
            "offset": 0,
            "slot": "1",
            "type": "t_string_storage"
          },
          {
            "astId": 49,
            "contract": "contracts/Backend.sol:Backend",
            "label": "walletAddress",
            "offset": 0,
            "slot": "2",
            "type": "t_address"
          },
          {
            "astId": 51,
            "contract": "contracts/Backend.sol:Backend",
            "label": "pendingFines",
            "offset": 0,
            "slot": "3",
            "type": "t_uint256"
          }
        ],
        "numberOfBytes": "128"
      },
      "t_struct(Violation)65_storage": {
        "encoding": "inplace",
        "label": "struct Backend.Violation",
        "members": [
          {
            "astId": 54,
            "contract": "contracts/Backend.sol:Backend",
            "label": "time",
            "offset": 0,
            "slot": "0",
            "type": "t_uint256"
          },
          {
            "astId": 56,
            "contract": "contracts/Backend.sol:Backend",
            "label": "violationType",
            "offset": 0,
            "slot": "1",
            "type": "t_string_storage"
          },
          {
            "astId": 58,
            "contract": "contracts/Backend.sol:Backend",
            "label": "area",
            "offset": 0,
            "slot": "2",
            "type": "t_string_storage"
          },
          {
            "astId": 60,
            "contract": "contracts/Backend.sol:Backend",
            "label": "reportedBy",
            "offset": 0,
            "slot": "3",
            "type": "t_address"
          },
          {
            "astId": 62,
            "contract": "contracts/Backend.sol:Backend",
            "label": "isPaid",
            "offset": 20,
            "slot": "3",
            "type": "t_bool"
          },
          {
            "astId": 64,
            "contract": "contracts/Backend.sol:Backend",
            "label": "fineAmount",
            "offset": 0,
            "slot": "4",
            "type": "t_uint256"
          }
        ],
        "numberOfBytes": "160"
      },
      "t_uint256": {
        "encoding": "inplace",
        "label": "uint256",
        "numberOfBytes": "32"
      }
    }
  }
}