{
  "address": "0xB76401dDfc10275515cD7a6e8FAF47C14BeAE834",
  "abi": [
    {
      "inputs": [
        {
          "internalType": "address",
          "name": "_verifierAddr",
          "type": "address"
        },
        {
          "internalType": "address",
          "name": "_verifier",
          "type": "address"
        },
        {
          "internalType": "uint256",
          "name": "_pubkeyHash",
          "type": "uint256"
        }
      ],
      "stateMutability": "nonpayable",
      "type": "constructor"
    },
    {
      "anonymous": false,
      "inputs": [
        {
          "indexed": true,
          "internalType": "address",
          "name": "user",
          "type": "address"
        },
        {
          "indexed": false,
          "internalType": "uint256",
          "name": "violationIndex",
          "type": "uint256"
        },
        {
          "indexed": false,
          "internalType": "uint256",
          "name": "amount",
          "type": "uint256"
        }
      ],
      "name": "FinePaid",
      "type": "event"
    },
    {
      "anonymous": false,
      "inputs": [
        {
          "indexed": true,
          "internalType": "address",
          "name": "userAddress",
          "type": "address"
        },
        {
          "indexed": false,
          "internalType": "string",
          "name": "name",
          "type": "string"
        },
        {
          "indexed": false,
          "internalType": "string",
          "name": "vehicleRegistrationNumber",
          "type": "string"
        }
      ],
      "name": "UserCreated",
      "type": "event"
    },
    {
      "anonymous": false,
      "inputs": [
        {
          "indexed": true,
          "internalType": "address",
          "name": "user",
          "type": "address"
        },
        {
          "indexed": false,
          "internalType": "string",
          "name": "violationType",
          "type": "string"
        },
        {
          "indexed": false,
          "internalType": "address",
          "name": "reportedBy",
          "type": "address"
        },
        {
          "indexed": false,
          "internalType": "uint256",
          "name": "fineAmount",
          "type": "uint256"
        }
      ],
      "name": "ViolationReported",
      "type": "event"
    },
    {
      "inputs": [],
      "name": "anonAadhaarVerifierAddr",
      "outputs": [
        {
          "internalType": "address",
          "name": "",
          "type": "address"
        }
      ],
      "stateMutability": "view",
      "type": "function"
    },
    {
      "inputs": [
        {
          "internalType": "string",
          "name": "_name",
          "type": "string"
        },
        {
          "internalType": "string",
          "name": "_vehicleRegistrationNumber",
          "type": "string"
        },
        {
          "components": [
            {
              "internalType": "uint256",
              "name": "nullifierSeed1",
              "type": "uint256"
            },
            {
              "internalType": "uint256",
              "name": "nullifier1",
              "type": "uint256"
            },
            {
              "internalType": "uint256",
              "name": "timestamp",
              "type": "uint256"
            },
            {
              "internalType": "uint256[4]",
              "name": "revealArray",
              "type": "uint256[4]"
            },
            {
              "internalType": "uint256[8]",
              "name": "groth16Proof1",
              "type": "uint256[8]"
            },
            {
              "internalType": "uint256",
              "name": "nullifier2",
              "type": "uint256"
            },
            {
              "internalType": "uint256",
              "name": "nullifierSeed2",
              "type": "uint256"
            },
            {
              "internalType": "uint256",
              "name": "documentType",
              "type": "uint256"
            },
            {
              "internalType": "uint256",
              "name": "reveal",
              "type": "uint256"
            },
            {
              "internalType": "uint256",
              "name": "signal",
              "type": "uint256"
            },
            {
              "internalType": "uint256[8]",
              "name": "groth16Proof2",
              "type": "uint256[8]"
            }
          ],
          "internalType": "struct Backend.CreateUserParams",
          "name": "params",
          "type": "tuple"
        }
      ],
      "name": "createUser",
      "outputs": [],
      "stateMutability": "payable",
      "type": "function"
    },
    {
      "inputs": [
        {
          "internalType": "address",
          "name": "",
          "type": "address"
        }
      ],
      "name": "finesPaid",
      "outputs": [
        {
          "internalType": "uint256",
          "name": "",
          "type": "uint256"
        }
      ],
      "stateMutability": "view",
      "type": "function"
    },
    {
      "inputs": [
        {
          "internalType": "address",
          "name": "_user",
          "type": "address"
        }
      ],
      "name": "getUserViolations",
      "outputs": [
        {
          "components": [
            {
              "internalType": "uint256",
              "name": "time",
              "type": "uint256"
            },
            {
              "internalType": "string",
              "name": "violationType",
              "type": "string"
            },
            {
              "internalType": "string",
              "name": "area",
              "type": "string"
            },
            {
              "internalType": "address",
              "name": "reportedBy",
              "type": "address"
            },
            {
              "internalType": "bool",
              "name": "isPaid",
              "type": "bool"
            },
            {
              "internalType": "uint256",
              "name": "fineAmount",
              "type": "uint256"
            }
          ],
          "internalType": "struct Backend.Violation[]",
          "name": "",
          "type": "tuple[]"
        }
      ],
      "stateMutability": "view",
      "type": "function"
    },
    {
      "inputs": [
        {
          "internalType": "address",
          "name": "_user",
          "type": "address"
        },
        {
          "internalType": "uint256",
          "name": "_violationIndex",
          "type": "uint256"
        },
        {
          "internalType": "uint256",
          "name": "nullifierSeed",
          "type": "uint256"
        },
        {
          "internalType": "uint256",
          "name": "nullifier",
          "type": "uint256"
        },
        {
          "internalType": "uint256",
          "name": "timestamp",
          "type": "uint256"
        },
        {
          "internalType": "uint256[4]",
          "name": "revealArray",
          "type": "uint256[4]"
        },
        {
          "internalType": "uint256[8]",
          "name": "groth16Proof",
          "type": "uint256[8]"
        }
      ],
      "name": "payFine",
      "outputs": [],
      "stateMutability": "payable",
      "type": "function"
    },
    {
      "inputs": [
        {
          "internalType": "address",
          "name": "_user",
          "type": "address"
        },
        {
          "internalType": "string",
          "name": "_violationType",
          "type": "string"
        },
        {
          "internalType": "uint256",
          "name": "_timestamp",
          "type": "uint256"
        },
        {
          "internalType": "string",
          "name": "_area",
          "type": "string"
        }
      ],
      "name": "reportViolation",
      "outputs": [],
      "stateMutability": "nonpayable",
      "type": "function"
    },
    {
      "inputs": [],
      "name": "storedPublicKeyHash",
      "outputs": [
        {
          "internalType": "uint256",
          "name": "",
          "type": "uint256"
        }
      ],
      "stateMutability": "view",
      "type": "function"
    },
    {
      "inputs": [
        {
          "internalType": "address",
          "name": "",
          "type": "address"
        }
      ],
      "name": "users",
      "outputs": [
        {
          "internalType": "string",
          "name": "name",
          "type": "string"
        },
        {
          "internalType": "string",
          "name": "vehicleRegistrationNumber",
          "type": "string"
        },
        {
          "internalType": "address",
          "name": "walletAddress",
          "type": "address"
        },
        {
          "internalType": "uint256",
          "name": "pendingFines",
          "type": "uint256"
        }
      ],
      "stateMutability": "view",
      "type": "function"
    },
    {
      "inputs": [
        {
          "internalType": "string",
          "name": "",
          "type": "string"
        }
      ],
      "name": "vehicleToUser",
      "outputs": [
        {
          "internalType": "address",
          "name": "",
          "type": "address"
        }
      ],
      "stateMutability": "view",
      "type": "function"
    },
    {
      "inputs": [],
      "name": "verifier",
      "outputs": [
        {
          "internalType": "address",
          "name": "",
          "type": "address"
        }
      ],
      "stateMutability": "view",
      "type": "function"
    },
    {
      "inputs": [
        {
          "internalType": "string",
          "name": "",
          "type": "string"
        }
      ],
      "name": "violationFines",
      "outputs": [
        {
          "internalType": "uint256",
          "name": "",
          "type": "uint256"
        }
      ],
      "stateMutability": "view",
      "type": "function"
    }
  ],
  "transactionHash": "0x6d3e0e61410e30d76d42d3e9ce59a0d9705cfa19e9cb7da58a3b05f1c5036169",
  "args": [
    "0xC4C4d6c21F1D8e4591a69f7662b6EcE0f2f0E61b",
    "0x6E1c757A9E94f5D78c053A0d5Dd6854619095B88",
    "7159552241047614681013946344274430157054820687880791674287250194862110506098"
  ],
  "numDeployments": 2,
  "solcInputHash": "1d4190908c841a5f1304cbbad455f50d",
  "bytecode": "0x60a06040523480156200001157600080fd5b5060405162001a7f38038062001a7f833981016040819052620000349162000141565b600180546001600160a01b038085166001600160a01b0319928316179092556000805492861692909116919091179055608081905260405160c8906006906200008b90675370656564696e6760c01b815260080190565b90815260405190819003602001812091909155665061726b696e6760c81b8152603290600690600701908152604051908190036020018120919091556814995908131a59da1d60ba1b8152603290600690600901908152604051908190036020018120919091556857726f6e672077617960b81b8152603290600690600901908152604051908190036020019020555062000182915050565b80516001600160a01b03811681146200013c57600080fd5b919050565b6000806000606084860312156200015757600080fd5b620001628462000124565b9250620001726020850162000124565b9150604084015190509250925092565b6080516118da620001a56000396000818161020c0152610e9001526118da6000f3fe60806040526004361061009c5760003560e01c806370c511391161006457806370c511391461016157806372ff6839146101a257806396ab4bab146101c25780639c895b0a146101fa578063a87430ba1461022e578063d0b9cf241461025e57600080fd5b80630a25e2f8146100a15780630dbffbcd146100e1578063271fbd09146101195780632b7ac3f31461012e57806340fffdfa1461014e575b600080fd5b3480156100ad57600080fd5b506100ce6100bc366004610f8f565b60056020526000908152604090205481565b6040519081526020015b60405180910390f35b3480156100ed57600080fd5b50600054610101906001600160a01b031681565b6040516001600160a01b0390911681526020016100d8565b61012c6101273660046110c2565b61028b565b005b34801561013a57600080fd5b50600154610101906001600160a01b031681565b61012c61015c3660046111bd565b61056f565b34801561016d57600080fd5b5061010161017c3660046112d1565b80516020818301810180516003825292820191909301209152546001600160a01b031681565b3480156101ae57600080fd5b5061012c6101bd36600461130e565b6107aa565b3480156101ce57600080fd5b506100ce6101dd3660046112d1565b805160208183018101805160068252928201919093012091525481565b34801561020657600080fd5b506100ce7f000000000000000000000000000000000000000000000000000000000000000081565b34801561023a57600080fd5b5061024e610249366004610f8f565b610a03565b6040516100d894939291906113dc565b34801561026a57600080fd5b5061027e610279366004610f8f565b610b45565b6040516100d8919061141e565b6001600160a01b0387811660009081526002602081905260409091200154166102f15760405162461bcd60e51b8152602060048201526013602482015272155cd95c88191bd95cc81b9bdd08195e1a5cdd606a1b60448201526064015b60405180910390fd5b6001600160a01b038716600090815260046020526040902080548790811061031b5761031b6114d8565b906000526020600020906005020160030160149054906101000a900460ff161561037b5760405162461bcd60e51b8152602060048201526011602482015270119a5b9948185b1c9958591e481c185a59607a1b60448201526064016102e8565b600080546001600160a01b03166350de0e578787873388886040518763ffffffff1660e01b81526004016103b4969594939291906114ee565b602060405180830381865afa1580156103d1573d6000803e3d6000fd5b505050506040513d601f19601f820116820180604052508101906103f5919061156a565b9050806104145760405162461bcd60e51b81526004016102e89061158c565b6001600160a01b038816600090815260046020526040812080548990811061043e5761043e6114d8565b90600052602060002090600502019050806004015434146104b25760405162461bcd60e51b815260206004820152602860248201527f5061796d656e74206d75737420626520657175616c20746f207468652066696e6044820152671948185b5bdd5b9d60c21b60648201526084016102e8565b6003808201805460ff60a01b1916600160a01b1790556001600160a01b038a1660009081526002602052604081209091018054916104ef836115ed565b90915550506001600160a01b0389166000908152600560205260408120805434929061051c908490611604565b9091555050604080518981523460208201526001600160a01b038b16917f7cf7727a6ea8ffa8b0fa4c048af68e653cbe5008f79a2ab7518ef64d667f9095910160405180910390a2505050505050505050565b33600090815260026020819052604090912001546001600160a01b0316156105cf5760405162461bcd60e51b81526020600482015260136024820152725573657220616c72656164792065786973747360681b60448201526064016102e8565b60006105f282600001518360200151846040015185606001518660800151610d1e565b9050806106115760405162461bcd60e51b81526004016102e89061158c565b600061063c8361014001518460a001518560e001518661010001518760c00151886101200151610da2565b9050806106a25760405162461bcd60e51b815260206004820152602e60248201527f5b416e6f6e41616468616172566f74655d3a20444c2050726f6f662073656e7460448201526d1034b9903737ba103b30b634b21760911b60648201526084016102e8565b60408051608081018252868152602080820187905233828401819052600060608401819052908152600290915291909120815181906106e190826116a6565b50602082015160018201906106f690826116a6565b506040828101516002830180546001600160a01b0319166001600160a01b03909216919091179055606090920151600391820155905133919061073a908790611766565b90815260405190819003602001812080546001600160a01b03939093166001600160a01b03199093169290921790915533907fa2e1d286e25c6fce64acccdfd7a54d53cce2f617ddff648ab1dbb3458ccdd95b9061079b9088908890611782565b60405180910390a25050505050565b6001600160a01b03848116600090815260026020819052604090912001541661080b5760405162461bcd60e51b8152602060048201526013602482015272155cd95c88191bd95cc81b9bdd08195e1a5cdd606a1b60448201526064016102e8565b600060068460405161081d9190611766565b908152602001604051809103902054116108725760405162461bcd60e51b8152602060048201526016602482015275496e76616c69642076696f6c6174696f6e207479706560501b60448201526064016102e8565b428211156108b65760405162461bcd60e51b81526020600482015260116024820152700496e76616c69642074696d657374616d7607c1b60448201526064016102e8565b60006006846040516108c89190611766565b908152604080519182900360209081018320546001600160a01b03891660009081526004835283812060c0860185528886528584018a81529486018890523360608701526080860182905260a086018390528054600181810183559183529390912085516005909402019283559251909450909182019061094990826116a6565b506040820151600282019061095e90826116a6565b5060608201516003808301805460808601511515600160a01b026001600160a81b03199091166001600160a01b039485161717905560a090930151600490920191909155861660009081526002602052604081209091018054916109c1836117b0565b9190505550846001600160a01b03167faa376010f293fc2cf9fd32a4f6f25fcc273f37844a3b33f76cab5211070da18085338460405161079b939291906117c9565b600260205260009081526040902080548190610a1e9061161d565b80601f0160208091040260200160405190810160405280929190818152602001828054610a4a9061161d565b8015610a975780601f10610a6c57610100808354040283529160200191610a97565b820191906000526020600020905b815481529060010190602001808311610a7a57829003601f168201915b505050505090806001018054610aac9061161d565b80601f0160208091040260200160405190810160405280929190818152602001828054610ad89061161d565b8015610b255780601f10610afa57610100808354040283529160200191610b25565b820191906000526020600020905b815481529060010190602001808311610b0857829003601f168201915b50505050600283015460039093015491926001600160a01b031691905084565b6001600160a01b0381166000908152600460209081526040808320805482518185028101850190935280835260609492939192909184015b82821015610d1357838290600052602060002090600502016040518060c001604052908160008201548152602001600182018054610bba9061161d565b80601f0160208091040260200160405190810160405280929190818152602001828054610be69061161d565b8015610c335780601f10610c0857610100808354040283529160200191610c33565b820191906000526020600020905b815481529060010190602001808311610c1657829003601f168201915b50505050508152602001600282018054610c4c9061161d565b80601f0160208091040260200160405190810160405280929190818152602001828054610c789061161d565b8015610cc55780601f10610c9a57610100808354040283529160200191610cc5565b820191906000526020600020905b815481529060010190602001808311610ca857829003601f168201915b505050918352505060038201546001600160a01b038116602080840191909152600160a01b90910460ff16151560408301526004909201546060909101529082526001929092019101610b7d565b505050509050919050565b600080546001600160a01b03166350de0e578787873388886040518763ffffffff1660e01b8152600401610d57969594939291906114ee565b602060405180830381865afa158015610d74573d6000803e3d6000fd5b505050506040513d601f19601f82011682018060405250810190610d98919061156a565b9695505050505050565b600080610dae83610f3c565b60018054604080518082019091528b5181529293506001600160a01b03169163f398789b9160208201908c9060200201519052604080516080810182528c820151918101918252908190606082018e60036020020151815250815260200160405180604001604052808e600460088110610e2a57610e2a6114d8565b602002015181526020018e600560088110610e4757610e476114d8565b60200201519052905260408051808201909152808d6006602002015181526020018d600760088110610e7b57610e7b6114d8565b60200201518152506040518060c001604052807f000000000000000000000000000000000000000000000000000000000000000081526020018d81526020018c81526020018b81526020018a8152602001878152506040518563ffffffff1660e01b8152600401610eef9493929190611820565b602060405180830381865afa158015610f0c573d6000803e3d6000fd5b505050506040513d601f19601f82011682018060405250810190610f30919061156a565b98975050505050505050565b6000600382604051602001610f5391815260200190565b60408051601f198184030181529190528051602090910120901c92915050565b80356001600160a01b0381168114610f8a57600080fd5b919050565b600060208284031215610fa157600080fd5b610faa82610f73565b9392505050565b634e487b7160e01b600052604160045260246000fd5b604051610160810167ffffffffffffffff81118282101715610feb57610feb610fb1565b60405290565b600082601f83011261100257600080fd5b6040516080810181811067ffffffffffffffff8211171561102557611025610fb1565b60405280608084018581111561103a57600080fd5b845b8181101561105457803583526020928301920161103c565b509195945050505050565b600082601f83011261107057600080fd5b60405161010080820182811067ffffffffffffffff8211171561109557611095610fb1565b604052830181858211156110a857600080fd5b845b828110156110545780358252602091820191016110aa565b6000806000806000806000610220888a0312156110de57600080fd5b6110e788610f73565b9650602088013595506040880135945060608801359350608088013592506111128960a08a01610ff1565b9150611122896101208a0161105f565b905092959891949750929550565b600082601f83011261114157600080fd5b813567ffffffffffffffff8082111561115c5761115c610fb1565b604051601f8301601f19908116603f0116810190828211818310171561118457611184610fb1565b8160405283815286602085880101111561119d57600080fd5b836020870160208301376000602085830101528094505050505092915050565b60008060008385036103c08112156111d457600080fd5b843567ffffffffffffffff808211156111ec57600080fd5b6111f888838901611130565b9550602087013591508082111561120e57600080fd5b5061121b87828801611130565b935050610380603f198201121561123157600080fd5b5061123a610fc7565b6040850135815260608501356020820152608085013560408201526112628660a08701610ff1565b60608201526101206112768782880161105f565b608083015261022086013560a083015261024086013560c083015261026086013560e08301526102808601356101008301526102a0860135908201526112c0866102c0870161105f565b610140820152809150509250925092565b6000602082840312156112e357600080fd5b813567ffffffffffffffff8111156112fa57600080fd5b61130684828501611130565b949350505050565b6000806000806080858703121561132457600080fd5b61132d85610f73565b9350602085013567ffffffffffffffff8082111561134a57600080fd5b61135688838901611130565b945060408701359350606087013591508082111561137357600080fd5b5061138087828801611130565b91505092959194509250565b60005b838110156113a757818101518382015260200161138f565b50506000910152565b600081518084526113c881602086016020860161138c565b601f01601f19169290920160200192915050565b6080815260006113ef60808301876113b0565b828103602084015261140181876113b0565b6001600160a01b0395909516604084015250506060015292915050565b60006020808301818452808551808352604092508286019150828160051b87010184880160005b838110156114ca57603f19898403018552815160c08151855288820151818a870152611473828701826113b0565b915050878201518582038987015261148b82826113b0565b6060848101516001600160a01b03169088015260808085015115159088015260a093840151939096019290925250509386019390860190600101611445565b509098975050505050505050565b634e487b7160e01b600052603260045260246000fd5b60006102008201905087825260208781840152866040840152856060840152608083018560005b600481101561153257815183529183019190830190600101611515565b50505061010083018460005b600881101561155b5781518352918301919083019060010161153e565b50505050979650505050505050565b60006020828403121561157c57600080fd5b81518015158114610faa57600080fd5b6020808252602b908201527f5b416e6f6e41616468616172566f74655d3a2070726f6f662073656e7420697360408201526a103737ba103b30b634b21760a91b606082015260800190565b634e487b7160e01b600052601160045260246000fd5b6000816115fc576115fc6115d7565b506000190190565b80820180821115611617576116176115d7565b92915050565b600181811c9082168061163157607f821691505b60208210810361165157634e487b7160e01b600052602260045260246000fd5b50919050565b601f8211156116a157600081815260208120601f850160051c8101602086101561167e5750805b601f850160051c820191505b8181101561169d5782815560010161168a565b5050505b505050565b815167ffffffffffffffff8111156116c0576116c0610fb1565b6116d4816116ce845461161d565b84611657565b602080601f83116001811461170957600084156116f15750858301515b600019600386901b1c1916600185901b17855561169d565b600085815260208120601f198616915b8281101561173857888601518255948401946001909101908401611719565b50858210156117565787850151600019600388901b60f8161c191681555b5050505050600190811b01905550565b6000825161177881846020870161138c565b9190910192915050565b60408152600061179560408301856113b0565b82810360208401526117a781856113b0565b95945050505050565b6000600182016117c2576117c26115d7565b5060010190565b6060815260006117dc60608301866113b0565b6001600160a01b039490941660208301525060400152919050565b8060005b600281101561181a5781518452602093840193909101906001016117fb565b50505050565b6101c0810161182f82876117f7565b60408083018660005b600281101561185f5761184c8383516117f7565b9183019160209190910190600101611838565b5050505061187060c08301856117f7565b61010082018360005b6006811015611898578151835260209283019290910190600101611879565b5050509594505050505056fea264697066735822122068ed58d0c0dddc9e635a50edf9062bdb40f68a74eb6bbfb6689b5b18b332f22264736f6c63430008140033",
  "devdoc": {
    "kind": "dev",
    "methods": {},
    "version": 1
  },
  "userdoc": {
    "kind": "user",
    "methods": {},
    "version": 1
  },
  "storageLayout": {
    "storage": [
      {
        "astId": 45,
        "contract": "contracts/Backend.sol:Backend",
        "label": "anonAadhaarVerifierAddr",
        "offset": 0,
        "slot": "0",
        "type": "t_address"
      },
      {
        "astId": 47,
        "contract": "contracts/Backend.sol:Backend",
        "label": "verifier",
        "offset": 0,
        "slot": "1",
        "type": "t_address"
      },
      {
        "astId": 105,
        "contract": "contracts/Backend.sol:Backend",
        "label": "users",
        "offset": 0,
        "slot": "2",
        "type": "t_mapping(t_address,t_struct(User)58_storage)"
      },
      {
        "astId": 109,
        "contract": "contracts/Backend.sol:Backend",
        "label": "vehicleToUser",
        "offset": 0,
        "slot": "3",
        "type": "t_mapping(t_string_memory_ptr,t_address)"
      },
      {
        "astId": 115,
        "contract": "contracts/Backend.sol:Backend",
        "label": "userViolations",
        "offset": 0,
        "slot": "4",
        "type": "t_mapping(t_address,t_array(t_struct(Violation)71_storage)dyn_storage)"
      },
      {
        "astId": 119,
        "contract": "contracts/Backend.sol:Backend",
        "label": "finesPaid",
        "offset": 0,
        "slot": "5",
        "type": "t_mapping(t_address,t_uint256)"
      },
      {
        "astId": 123,
        "contract": "contracts/Backend.sol:Backend",
        "label": "violationFines",
        "offset": 0,
        "slot": "6",
        "type": "t_mapping(t_string_memory_ptr,t_uint256)"
      }
    ],
    "types": {
      "t_address": {
        "encoding": "inplace",
        "label": "address",
        "numberOfBytes": "20"
      },
      "t_array(t_struct(Violation)71_storage)dyn_storage": {
        "base": "t_struct(Violation)71_storage",
        "encoding": "dynamic_array",
        "label": "struct Backend.Violation[]",
        "numberOfBytes": "32"
      },
      "t_bool": {
        "encoding": "inplace",
        "label": "bool",
        "numberOfBytes": "1"
      },
      "t_mapping(t_address,t_array(t_struct(Violation)71_storage)dyn_storage)": {
        "encoding": "mapping",
        "key": "t_address",
        "label": "mapping(address => struct Backend.Violation[])",
        "numberOfBytes": "32",
        "value": "t_array(t_struct(Violation)71_storage)dyn_storage"
      },
      "t_mapping(t_address,t_struct(User)58_storage)": {
        "encoding": "mapping",
        "key": "t_address",
        "label": "mapping(address => struct Backend.User)",
        "numberOfBytes": "32",
        "value": "t_struct(User)58_storage"
      },
      "t_mapping(t_address,t_uint256)": {
        "encoding": "mapping",
        "key": "t_address",
        "label": "mapping(address => uint256)",
        "numberOfBytes": "32",
        "value": "t_uint256"
      },
      "t_mapping(t_string_memory_ptr,t_address)": {
        "encoding": "mapping",
        "key": "t_string_memory_ptr",
        "label": "mapping(string => address)",
        "numberOfBytes": "32",
        "value": "t_address"
      },
      "t_mapping(t_string_memory_ptr,t_uint256)": {
        "encoding": "mapping",
        "key": "t_string_memory_ptr",
        "label": "mapping(string => uint256)",
        "numberOfBytes": "32",
        "value": "t_uint256"
      },
      "t_string_memory_ptr": {
        "encoding": "bytes",
        "label": "string",
        "numberOfBytes": "32"
      },
      "t_string_storage": {
        "encoding": "bytes",
        "label": "string",
        "numberOfBytes": "32"
      },
      "t_struct(User)58_storage": {
        "encoding": "inplace",
        "label": "struct Backend.User",
        "members": [
          {
            "astId": 51,
            "contract": "contracts/Backend.sol:Backend",
            "label": "name",
            "offset": 0,
            "slot": "0",
            "type": "t_string_storage"
          },
          {
            "astId": 53,
            "contract": "contracts/Backend.sol:Backend",
            "label": "vehicleRegistrationNumber",
            "offset": 0,
            "slot": "1",
            "type": "t_string_storage"
          },
          {
            "astId": 55,
            "contract": "contracts/Backend.sol:Backend",
            "label": "walletAddress",
            "offset": 0,
            "slot": "2",
            "type": "t_address"
          },
          {
            "astId": 57,
            "contract": "contracts/Backend.sol:Backend",
            "label": "pendingFines",
            "offset": 0,
            "slot": "3",
            "type": "t_uint256"
          }
        ],
        "numberOfBytes": "128"
      },
      "t_struct(Violation)71_storage": {
        "encoding": "inplace",
        "label": "struct Backend.Violation",
        "members": [
          {
            "astId": 60,
            "contract": "contracts/Backend.sol:Backend",
            "label": "time",
            "offset": 0,
            "slot": "0",
            "type": "t_uint256"
          },
          {
            "astId": 62,
            "contract": "contracts/Backend.sol:Backend",
            "label": "violationType",
            "offset": 0,
            "slot": "1",
            "type": "t_string_storage"
          },
          {
            "astId": 64,
            "contract": "contracts/Backend.sol:Backend",
            "label": "area",
            "offset": 0,
            "slot": "2",
            "type": "t_string_storage"
          },
          {
            "astId": 66,
            "contract": "contracts/Backend.sol:Backend",
            "label": "reportedBy",
            "offset": 0,
            "slot": "3",
            "type": "t_address"
          },
          {
            "astId": 68,
            "contract": "contracts/Backend.sol:Backend",
            "label": "isPaid",
            "offset": 20,
            "slot": "3",
            "type": "t_bool"
          },
          {
            "astId": 70,
            "contract": "contracts/Backend.sol:Backend",
            "label": "fineAmount",
            "offset": 0,
            "slot": "4",
            "type": "t_uint256"
          }
        ],
        "numberOfBytes": "160"
      },
      "t_uint256": {
        "encoding": "inplace",
        "label": "uint256",
        "numberOfBytes": "32"
      }
    }
  }
}