{
  "address": "0x2065701c05095B69b412B240FA1CDF6DD66a0328",
  "abi": [
    {
      "inputs": [
        {
          "internalType": "address",
          "name": "_verifierAddr",
          "type": "address"
        },
        {
          "internalType": "address",
          "name": "_verifier",
          "type": "address"
        },
        {
          "internalType": "uint256",
          "name": "_pubkeyHash",
          "type": "uint256"
        }
      ],
      "stateMutability": "nonpayable",
      "type": "constructor"
    },
    {
      "anonymous": false,
      "inputs": [
        {
          "indexed": true,
          "internalType": "address",
          "name": "user",
          "type": "address"
        },
        {
          "indexed": false,
          "internalType": "uint256",
          "name": "violationIndex",
          "type": "uint256"
        },
        {
          "indexed": false,
          "internalType": "uint256",
          "name": "amount",
          "type": "uint256"
        }
      ],
      "name": "FinePaid",
      "type": "event"
    },
    {
      "anonymous": false,
      "inputs": [
        {
          "indexed": true,
          "internalType": "address",
          "name": "user",
          "type": "address"
        },
        {
          "indexed": false,
          "internalType": "uint256",
          "name": "newRewardBalance",
          "type": "uint256"
        }
      ],
      "name": "RewardUpdated",
      "type": "event"
    },
    {
      "anonymous": false,
      "inputs": [
        {
          "indexed": true,
          "internalType": "address",
          "name": "userAddress",
          "type": "address"
        },
        {
          "indexed": false,
          "internalType": "string",
          "name": "name",
          "type": "string"
        },
        {
          "indexed": false,
          "internalType": "string",
          "name": "vehicleRegistrationNumber",
          "type": "string"
        }
      ],
      "name": "UserCreated",
      "type": "event"
    },
    {
      "anonymous": false,
      "inputs": [
        {
          "indexed": true,
          "internalType": "address",
          "name": "user",
          "type": "address"
        },
        {
          "indexed": false,
          "internalType": "string",
          "name": "violationType",
          "type": "string"
        },
        {
          "indexed": false,
          "internalType": "address",
          "name": "reportedBy",
          "type": "address"
        },
        {
          "indexed": false,
          "internalType": "uint256",
          "name": "fineAmount",
          "type": "uint256"
        }
      ],
      "name": "ViolationReported",
      "type": "event"
    },
    {
      "inputs": [
        {
          "internalType": "uint256",
          "name": "",
          "type": "uint256"
        }
      ],
      "name": "allUsers",
      "outputs": [
        {
          "internalType": "address",
          "name": "",
          "type": "address"
        }
      ],
      "stateMutability": "view",
      "type": "function"
    },
    {
      "inputs": [],
      "name": "anonAadhaarVerifierAddr",
      "outputs": [
        {
          "internalType": "address",
          "name": "",
          "type": "address"
        }
      ],
      "stateMutability": "view",
      "type": "function"
    },
    {
      "inputs": [],
      "name": "convertPointsToRewards",
      "outputs": [],
      "stateMutability": "nonpayable",
      "type": "function"
    },
    {
      "inputs": [
        {
          "internalType": "string",
          "name": "_basename",
          "type": "string"
        },
        {
          "internalType": "string",
          "name": "_vehicleRegistrationNumber",
          "type": "string"
        },
        {
          "internalType": "string",
          "name": "_vehicleType",
          "type": "string"
        },
        {
          "components": [
            {
              "internalType": "uint256",
              "name": "nullifierSeed1",
              "type": "uint256"
            },
            {
              "internalType": "uint256",
              "name": "nullifier1",
              "type": "uint256"
            },
            {
              "internalType": "uint256",
              "name": "timestamp",
              "type": "uint256"
            },
            {
              "internalType": "uint256[4]",
              "name": "revealArray",
              "type": "uint256[4]"
            },
            {
              "internalType": "uint256[8]",
              "name": "groth16Proof1",
              "type": "uint256[8]"
            }
          ],
          "internalType": "struct Backend.CreateUserParams",
          "name": "params",
          "type": "tuple"
        }
      ],
      "name": "createUser",
      "outputs": [],
      "stateMutability": "payable",
      "type": "function"
    },
    {
      "inputs": [
        {
          "internalType": "address",
          "name": "",
          "type": "address"
        }
      ],
      "name": "finesPaid",
      "outputs": [
        {
          "internalType": "uint256",
          "name": "",
          "type": "uint256"
        }
      ],
      "stateMutability": "view",
      "type": "function"
    },
    {
      "inputs": [],
      "name": "getAllUsersAndPoints",
      "outputs": [
        {
          "internalType": "string[]",
          "name": "basenames",
          "type": "string[]"
        },
        {
          "internalType": "uint256[]",
          "name": "points",
          "type": "uint256[]"
        }
      ],
      "stateMutability": "view",
      "type": "function"
    },
    {
      "inputs": [],
      "name": "getContractBalance",
      "outputs": [
        {
          "internalType": "uint256",
          "name": "",
          "type": "uint256"
        }
      ],
      "stateMutability": "view",
      "type": "function"
    },
    {
      "inputs": [],
      "name": "getMyRewards",
      "outputs": [
        {
          "internalType": "uint256",
          "name": "",
          "type": "uint256"
        }
      ],
      "stateMutability": "view",
      "type": "function"
    },
    {
      "inputs": [
        {
          "internalType": "address",
          "name": "_walletAddress",
          "type": "address"
        }
      ],
      "name": "getUserDetailsByAddress",
      "outputs": [
        {
          "internalType": "string",
          "name": "basename",
          "type": "string"
        },
        {
          "internalType": "string",
          "name": "vehicleNumber",
          "type": "string"
        },
        {
          "internalType": "string",
          "name": "vehicleType",
          "type": "string"
        },
        {
          "internalType": "uint256",
          "name": "pendingFines",
          "type": "uint256"
        },
        {
          "internalType": "uint256",
          "name": "rewardBalance",
          "type": "uint256"
        },
        {
          "internalType": "uint256",
          "name": "points",
          "type": "uint256"
        }
      ],
      "stateMutability": "view",
      "type": "function"
    },
    {
      "inputs": [
        {
          "internalType": "string",
          "name": "_basename",
          "type": "string"
        }
      ],
      "name": "getUserDetailsByBasename",
      "outputs": [
        {
          "internalType": "string",
          "name": "basename",
          "type": "string"
        },
        {
          "internalType": "string",
          "name": "vehicleNumber",
          "type": "string"
        },
        {
          "internalType": "string",
          "name": "vehicleType",
          "type": "string"
        },
        {
          "internalType": "address",
          "name": "walletAddress",
          "type": "address"
        },
        {
          "internalType": "uint256",
          "name": "pendingFines",
          "type": "uint256"
        },
        {
          "internalType": "uint256",
          "name": "rewardBalance",
          "type": "uint256"
        },
        {
          "internalType": "uint256",
          "name": "points",
          "type": "uint256"
        }
      ],
      "stateMutability": "view",
      "type": "function"
    },
    {
      "inputs": [
        {
          "internalType": "address",
          "name": "_userAddress",
          "type": "address"
        }
      ],
      "name": "getUserPoints",
      "outputs": [
        {
          "internalType": "uint256",
          "name": "",
          "type": "uint256"
        }
      ],
      "stateMutability": "view",
      "type": "function"
    },
    {
      "inputs": [
        {
          "internalType": "address",
          "name": "_user",
          "type": "address"
        }
      ],
      "name": "getUserViolations",
      "outputs": [
        {
          "components": [
            {
              "internalType": "uint256",
              "name": "time",
              "type": "uint256"
            },
            {
              "internalType": "string",
              "name": "violationType",
              "type": "string"
            },
            {
              "internalType": "string",
              "name": "area",
              "type": "string"
            },
            {
              "internalType": "address",
              "name": "reportedBy",
              "type": "address"
            },
            {
              "internalType": "bool",
              "name": "isPaid",
              "type": "bool"
            },
            {
              "internalType": "uint256",
              "name": "fineAmount",
              "type": "uint256"
            }
          ],
          "internalType": "struct Backend.Violation[]",
          "name": "",
          "type": "tuple[]"
        }
      ],
      "stateMutability": "view",
      "type": "function"
    },
    {
      "inputs": [
        {
          "internalType": "address",
          "name": "_user",
          "type": "address"
        },
        {
          "internalType": "uint256",
          "name": "_violationIndex",
          "type": "uint256"
        },
        {
          "internalType": "uint256",
          "name": "nullifierSeed",
          "type": "uint256"
        },
        {
          "internalType": "uint256",
          "name": "nullifier",
          "type": "uint256"
        },
        {
          "internalType": "uint256",
          "name": "timestamp",
          "type": "uint256"
        },
        {
          "internalType": "uint256[4]",
          "name": "revealArray",
          "type": "uint256[4]"
        },
        {
          "internalType": "uint256[8]",
          "name": "groth16Proof",
          "type": "uint256[8]"
        }
      ],
      "name": "payFine",
      "outputs": [],
      "stateMutability": "payable",
      "type": "function"
    },
    {
      "inputs": [
        {
          "internalType": "address",
          "name": "_user",
          "type": "address"
        },
        {
          "internalType": "string",
          "name": "_violationType",
          "type": "string"
        },
        {
          "internalType": "uint256",
          "name": "_timestamp",
          "type": "uint256"
        },
        {
          "internalType": "string",
          "name": "_area",
          "type": "string"
        }
      ],
      "name": "reportViolation",
      "outputs": [],
      "stateMutability": "nonpayable",
      "type": "function"
    },
    {
      "inputs": [],
      "name": "storedPublicKeyHash",
      "outputs": [
        {
          "internalType": "uint256",
          "name": "",
          "type": "uint256"
        }
      ],
      "stateMutability": "view",
      "type": "function"
    },
    {
      "inputs": [],
      "name": "totalRewardPool",
      "outputs": [
        {
          "internalType": "uint256",
          "name": "",
          "type": "uint256"
        }
      ],
      "stateMutability": "view",
      "type": "function"
    },
    {
      "inputs": [
        {
          "internalType": "address",
          "name": "_user",
          "type": "address"
        },
        {
          "internalType": "uint256",
          "name": "_points",
          "type": "uint256"
        }
      ],
      "name": "updatePoints",
      "outputs": [],
      "stateMutability": "nonpayable",
      "type": "function"
    },
    {
      "inputs": [
        {
          "internalType": "address",
          "name": "_user",
          "type": "address"
        },
        {
          "internalType": "uint256",
          "name": "_newReward",
          "type": "uint256"
        }
      ],
      "name": "updateUserReward",
      "outputs": [],
      "stateMutability": "nonpayable",
      "type": "function"
    },
    {
      "inputs": [
        {
          "internalType": "address",
          "name": "",
          "type": "address"
        }
      ],
      "name": "users",
      "outputs": [
        {
          "internalType": "string",
          "name": "basename",
          "type": "string"
        },
        {
          "internalType": "string",
          "name": "vehicleRegistrationNumber",
          "type": "string"
        },
        {
          "internalType": "string",
          "name": "vehicleType",
          "type": "string"
        },
        {
          "internalType": "address",
          "name": "walletAddress",
          "type": "address"
        },
        {
          "internalType": "uint256",
          "name": "pendingFines",
          "type": "uint256"
        },
        {
          "internalType": "uint256",
          "name": "rewardBalance",
          "type": "uint256"
        },
        {
          "internalType": "uint256",
          "name": "points",
          "type": "uint256"
        }
      ],
      "stateMutability": "view",
      "type": "function"
    },
    {
      "inputs": [
        {
          "internalType": "string",
          "name": "",
          "type": "string"
        }
      ],
      "name": "vehicleToUser",
      "outputs": [
        {
          "internalType": "address",
          "name": "",
          "type": "address"
        }
      ],
      "stateMutability": "view",
      "type": "function"
    },
    {
      "inputs": [],
      "name": "verifier",
      "outputs": [
        {
          "internalType": "address",
          "name": "",
          "type": "address"
        }
      ],
      "stateMutability": "view",
      "type": "function"
    },
    {
      "inputs": [
        {
          "internalType": "string",
          "name": "",
          "type": "string"
        }
      ],
      "name": "violationFines",
      "outputs": [
        {
          "internalType": "uint256",
          "name": "",
          "type": "uint256"
        }
      ],
      "stateMutability": "view",
      "type": "function"
    }
  ],
  "transactionHash": "0x3eba043fc14ea47c5c8f1ce7ceec1606906f099f6ac9f6d8a41f32cf34cf34bf",
  "args": [
    "0xC4C4d6c21F1D8e4591a69f7662b6EcE0f2f0E61b",
    "0x6E1c757A9E94f5D78c053A0d5Dd6854619095B88",
    "7159552241047614681013946344274430157054820687880791674287250194862110506098"
  ],
  "numDeployments": 11,
  "solcInputHash": "15431f7e40ffe6a36d8b2234b3021999",
  "bytecode": "0x60a06040523480156200001157600080fd5b50604051620028b3380380620028b3833981016040819052620000349162000146565b600180546001600160a01b038085166001600160a01b031992831617909255600080549286169290911691909117905560808190526040516050906008906200008b90675370656564696e6760c01b815260080190565b90815260405190819003602001812091909155665061726b696e6760c81b8152602890600890600701908152604051908190036020018120919091556814995908131a59da1d60ba1b8152603c90600890600901908152604051908190036020018120919091556857726f6e672077617960b81b8152605a906008906009019081526040519081900360200190205550506103e86003555062000187565b80516001600160a01b03811681146200014157600080fd5b919050565b6000806000606084860312156200015c57600080fd5b620001678462000129565b9250620001776020850162000129565b9150604084015190509250925092565b608051612710620001a3600039600061039d01526127106000f3fe6080604052600436106101355760003560e01c80636f9fb98a116100ab578063a2bdedf41161006f578063a2bdedf4146103bf578063a87430ba146103df578063aeefe31f146103ff578063d0b9cf241461041f578063eca7e54d1461044c578063ff80b1e81461045f57600080fd5b80636f9fb98a146102df57806370c51139146102f257806372ff68391461033357806396ab4bab146103535780639c895b0a1461038b57600080fd5b80632af07424116100fd5780632af07424146102105780632b7ac3f3146102305780632f24225c146102505780635393edab146102735780635cd79836146102a557806364eef57e146102ca57600080fd5b806309c85e241461013a5780630a25e2f8146101635780630dbffbcd14610190578063190d2e90146101c8578063271fbd09146101fb575b600080fd5b34801561014657600080fd5b5061015060035481565b6040519081526020015b60405180910390f35b34801561016f57600080fd5b5061015061017e366004611c50565b60076020526000908152604090205481565b34801561019c57600080fd5b506000546101b0906001600160a01b031681565b6040516001600160a01b03909116815260200161015a565b3480156101d457600080fd5b506101e86101e3366004611d3e565b61047f565b60405161015a9796959493929190611dcb565b61020e610209366004611f05565b6107e6565b005b34801561021c57600080fd5b5061020e61022b366004611f73565b610ab6565b34801561023c57600080fd5b506001546101b0906001600160a01b031681565b34801561025c57600080fd5b50610265610b0f565b60405161015a929190611f9d565b34801561027f57600080fd5b5061029361028e366004611c50565b610cf8565b60405161015a96959493929190612038565b3480156102b157600080fd5b5033600090815260046020526040902060050154610150565b3480156102d657600080fd5b5061020e610f80565b3480156102eb57600080fd5b5047610150565b3480156102fe57600080fd5b506101b061030d366004611d3e565b80516020818301810180516005825292820191909301209152546001600160a01b031681565b34801561033f57600080fd5b5061020e61034e366004612090565b611294565b34801561035f57600080fd5b5061015061036e366004611d3e565b805160208183018101805160088252928201919093012091525481565b34801561039757600080fd5b506101507f000000000000000000000000000000000000000000000000000000000000000081565b3480156103cb57600080fd5b506101b06103da36600461210e565b6114c3565b3480156103eb57600080fd5b506101e86103fa366004611c50565b6114ed565b34801561040b57600080fd5b5061015061041a366004611c50565b6116ca565b34801561042b57600080fd5b5061043f61043a366004611c50565b611725565b60405161015a9190612127565b61020e61045a3660046121e1565b6118fe565b34801561046b57600080fd5b5061020e61047a366004611f73565b611b1a565b60608080600080808080805b60025481101561053557898051906020012060046000600284815481106104b4576104b46122cc565b60009182526020808320909101546001600160a01b03168352820192909252604090810190912090516104e7919061231c565b6040518091039020036105235760028181548110610507576105076122cc565b6000918252602090912001546001600160a01b03169150610535565b8061052d816123a8565b91505061048b565b506001600160a01b0381166105825760405162461bcd60e51b815260206004820152600e60248201526d155cd95c881b9bdd08199bdd5b9960921b60448201526064015b60405180910390fd5b6001600160a01b038116600090815260046020526040808220815160e081019092528054829082906105b3906122e2565b80601f01602080910402602001604051908101604052809291908181526020018280546105df906122e2565b801561062c5780601f106106015761010080835404028352916020019161062c565b820191906000526020600020905b81548152906001019060200180831161060f57829003601f168201915b50505050508152602001600182018054610645906122e2565b80601f0160208091040260200160405190810160405280929190818152602001828054610671906122e2565b80156106be5780601f10610693576101008083540402835291602001916106be565b820191906000526020600020905b8154815290600101906020018083116106a157829003601f168201915b505050505081526020016002820180546106d7906122e2565b80601f0160208091040260200160405190810160405280929190818152602001828054610703906122e2565b80156107505780601f1061072557610100808354040283529160200191610750565b820191906000526020600020905b81548152906001019060200180831161073357829003601f168201915b505050505081526020016003820160009054906101000a90046001600160a01b03166001600160a01b03166001600160a01b0316815260200160048201548152602001600582015481526020016006820154815250509050806000015181602001518260400151836060015184608001518560a001518660c0015198509850985098509850985098505050919395979092949650565b6001600160a01b03878116600090815260046020526040902060030154166108205760405162461bcd60e51b8152600401610579906123c1565b6001600160a01b038716600090815260066020526040902080548790811061084a5761084a6122cc565b906000526020600020906005020160030160149054906101000a900460ff16156108aa5760405162461bcd60e51b8152602060048201526011602482015270119a5b9948185b1c9958591e481c185a59607a1b6044820152606401610579565b600080546001600160a01b03166350de0e578787873388886040518763ffffffff1660e01b81526004016108e3969594939291906123ee565b602060405180830381865afa158015610900573d6000803e3d6000fd5b505050506040513d601f19601f82011682018060405250810190610924919061246a565b9050806109435760405162461bcd60e51b81526004016105799061248c565b6001600160a01b038816600090815260066020526040812080548990811061096d5761096d6122cc565b90600052602060002090600502019050806004015434146109e15760405162461bcd60e51b815260206004820152602860248201527f5061796d656e74206d75737420626520657175616c20746f207468652066696e6044820152671948185b5bdd5b9d60c21b6064820152608401610579565b60038101805460ff60a01b1916600160a01b1790556001600160a01b0389166000908152600460208190526040822001805491610a1d836124d7565b90915550506001600160a01b03891660009081526007602052604081208054349290610a4a9084906124ee565b925050819055503460036000828254610a6391906124ee565b9091555050604080518981523460208201526001600160a01b038b16917f7cf7727a6ea8ffa8b0fa4c048af68e653cbe5008f79a2ab7518ef64d667f9095910160405180910390a2505050505050505050565b6001600160a01b0382811660009081526004602052604090206003015416610af05760405162461bcd60e51b8152600401610579906123c1565b6001600160a01b03909116600090815260046020526040902060060155565b60025460609081908067ffffffffffffffff811115610b3057610b30611c72565b604051908082528060200260200182016040528015610b6357816020015b6060815260200190600190039081610b4e5790505b5092508067ffffffffffffffff811115610b7f57610b7f611c72565b604051908082528060200260200182016040528015610ba8578160200160208202803683370190505b50915060005b81811015610cf257600060028281548110610bcb57610bcb6122cc565b60009182526020808320909101546001600160a01b031680835260049091526040909120805491925090610bfe906122e2565b80601f0160208091040260200160405190810160405280929190818152602001828054610c2a906122e2565b8015610c775780601f10610c4c57610100808354040283529160200191610c77565b820191906000526020600020905b815481529060010190602001808311610c5a57829003601f168201915b5050505050858381518110610c8e57610c8e6122cc565b602002602001018190525060046000826001600160a01b03166001600160a01b0316815260200190815260200160002060060154848381518110610cd457610cd46122cc565b60209081029190910101525080610cea816123a8565b915050610bae565b50509091565b6001600160a01b038181166000908152600460205260408120600301546060928392839290918291829116610d3f5760405162461bcd60e51b8152600401610579906123c1565b6001600160a01b038716600090815260046020526040808220815160e08101909252805482908290610d70906122e2565b80601f0160208091040260200160405190810160405280929190818152602001828054610d9c906122e2565b8015610de95780601f10610dbe57610100808354040283529160200191610de9565b820191906000526020600020905b815481529060010190602001808311610dcc57829003601f168201915b50505050508152602001600182018054610e02906122e2565b80601f0160208091040260200160405190810160405280929190818152602001828054610e2e906122e2565b8015610e7b5780601f10610e5057610100808354040283529160200191610e7b565b820191906000526020600020905b815481529060010190602001808311610e5e57829003601f168201915b50505050508152602001600282018054610e94906122e2565b80601f0160208091040260200160405190810160405280929190818152602001828054610ec0906122e2565b8015610f0d5780601f10610ee257610100808354040283529160200191610f0d565b820191906000526020600020905b815481529060010190602001808311610ef057829003601f168201915b505050918352505060038201546001600160a01b0316602080830191909152600483015460408084019190915260058401546060840152600690930154608092830152835190840151928401519184015160a085015160c090950151919d939c50919a5090985091965090945092505050565b3360009081526004602052604090206006810154610fd75760405162461bcd60e51b8152602060048201526014602482015273139bc81c1bda5b9d1cc81d1bc818dbdb9d995c9d60621b6044820152606401610579565b6000600354116110205760405162461bcd60e51b815260206004820152601460248201527352657761726420706f6f6c20697320656d70747960601b6044820152606401610579565b6040805160018082528183019092526000918291906020808301908036833701905050905060005b81518110156110b25760046000838381518110611067576110676122cc565b60200260200101516001600160a01b03166001600160a01b03168152602001908152602001600020600601548361109e91906124ee565b9250806110aa816123a8565b915050611048565b50600082116111035760405162461bcd60e51b815260206004820152601760248201527f4e6f20706f696e747320696e207468652073797374656d0000000000000000006044820152606401610579565b60008260035485600601546111189190612507565b611122919061251e565b9050804710156111885760405162461bcd60e51b815260206004820152602b60248201527f4e6f7420656e6f7567682066756e647320696e20636f6e747261637420746f2060448201526a706179207265776172647360a81b6064820152608401610579565b604051600090339083908381818185875af1925050503d80600081146111ca576040519150601f19603f3d011682016040523d82523d6000602084013e6111cf565b606091505b50509050806112195760405162461bcd60e51b815260206004820152601660248201527514995dd85c99081d1c985b9cd9995c8819985a5b195960521b6044820152606401610579565b8185600501600082825461122d91906124ee565b90915550506000600686018190556003805484929061124d908490612540565b9091555050600585015460405190815233907f401ccfec4c6c7ac3f3b71182750d0f8d73c0d29cc476732b0b21ab0d359da47f906020015b60405180910390a25050505050565b6001600160a01b03848116600090815260046020526040902060030154166112ce5760405162461bcd60e51b8152600401610579906123c1565b60006008846040516112e09190612553565b908152602001604051809103902054116113355760405162461bcd60e51b8152602060048201526016602482015275496e76616c69642076696f6c6174696f6e207479706560501b6044820152606401610579565b428211156113795760405162461bcd60e51b81526020600482015260116024820152700496e76616c69642074696d657374616d7607c1b6044820152606401610579565b600060088460405161138b9190612553565b908152604080519182900360209081018320546001600160a01b03891660009081526006835283812060c0860185528886528584018a81529486018890523360608701526080860182905260a086018390528054600181810183559183529390912085516005909402019283559251909450909182019061140c90826125be565b506040820151600282019061142190826125be565b50606082015160038201805460808501511515600160a01b026001600160a81b03199091166001600160a01b039384161717905560a0909201516004918201559086166000908152602082905260408120909101805491611481836123a8565b9190505550846001600160a01b03167faa376010f293fc2cf9fd32a4f6f25fcc273f37844a3b33f76cab5211070da1808533846040516112859392919061267e565b600281815481106114d357600080fd5b6000918252602090912001546001600160a01b0316905081565b600460205260009081526040902080548190611508906122e2565b80601f0160208091040260200160405190810160405280929190818152602001828054611534906122e2565b80156115815780601f1061155657610100808354040283529160200191611581565b820191906000526020600020905b81548152906001019060200180831161156457829003601f168201915b505050505090806001018054611596906122e2565b80601f01602080910402602001604051908101604052809291908181526020018280546115c2906122e2565b801561160f5780601f106115e45761010080835404028352916020019161160f565b820191906000526020600020905b8154815290600101906020018083116115f257829003601f168201915b505050505090806002018054611624906122e2565b80601f0160208091040260200160405190810160405280929190818152602001828054611650906122e2565b801561169d5780601f106116725761010080835404028352916020019161169d565b820191906000526020600020905b81548152906001019060200180831161168057829003601f168201915b5050505060038301546004840154600585015460069095015493946001600160a01b039092169390925087565b6001600160a01b038181166000908152600460205260408120600301549091166117065760405162461bcd60e51b8152600401610579906123c1565b506001600160a01b031660009081526004602052604090206006015490565b6001600160a01b0381166000908152600660209081526040808320805482518185028101850190935280835260609492939192909184015b828210156118f357838290600052602060002090600502016040518060c00160405290816000820154815260200160018201805461179a906122e2565b80601f01602080910402602001604051908101604052809291908181526020018280546117c6906122e2565b80156118135780601f106117e857610100808354040283529160200191611813565b820191906000526020600020905b8154815290600101906020018083116117f657829003601f168201915b5050505050815260200160028201805461182c906122e2565b80601f0160208091040260200160405190810160405280929190818152602001828054611858906122e2565b80156118a55780601f1061187a576101008083540402835291602001916118a5565b820191906000526020600020905b81548152906001019060200180831161188857829003601f168201915b505050918352505060038201546001600160a01b038116602080840191909152600160a01b90910460ff1615156040830152600490920154606090910152908252600192909201910161175d565b505050509050919050565b336000908152600460205260409020600301546001600160a01b03161561195d5760405162461bcd60e51b81526020600482015260136024820152725573657220616c72656164792065786973747360681b6044820152606401610579565b600061198082600001518360200151846040015185606001518660800151611bb0565b90508061199f5760405162461bcd60e51b81526004016105799061248c565b6040805160e0810182528681526020808201879052818301869052336060830181905260006080840181905260a08401819052606460c0850152908152600490915291909120815181906119f390826125be565b5060208201516001820190611a0890826125be565b5060408201516002820190611a1d90826125be565b5060608201516003820180546001600160a01b039092166001600160a01b03199283161790556080830151600483015560a083015160058084019190915560c090930151600690920191909155600280546001810182556000919091527f405787fa12a823e0f2b7631cc41b3ba8828b3321ca811111fa75cd3aa3bb5ace01805490911633908117909155604051909190611ab9908790612553565b90815260405190819003602001812080546001600160a01b03939093166001600160a01b03199093169290921790915533907fa2e1d286e25c6fce64acccdfd7a54d53cce2f617ddff648ab1dbb3458ccdd95b9061128590889088906126ac565b6001600160a01b0382811660009081526004602052604090206003015416611b545760405162461bcd60e51b8152600401610579906123c1565b6001600160a01b03821660008181526004602052604090819020600501839055517f401ccfec4c6c7ac3f3b71182750d0f8d73c0d29cc476732b0b21ab0d359da47f90611ba49084815260200190565b60405180910390a25050565b600080546001600160a01b03166350de0e578787873388886040518763ffffffff1660e01b8152600401611be9969594939291906123ee565b602060405180830381865afa158015611c06573d6000803e3d6000fd5b505050506040513d601f19601f82011682018060405250810190611c2a919061246a565b9695505050505050565b80356001600160a01b0381168114611c4b57600080fd5b919050565b600060208284031215611c6257600080fd5b611c6b82611c34565b9392505050565b634e487b7160e01b600052604160045260246000fd5b60405160a0810167ffffffffffffffff81118282101715611cab57611cab611c72565b60405290565b600082601f830112611cc257600080fd5b813567ffffffffffffffff80821115611cdd57611cdd611c72565b604051601f8301601f19908116603f01168101908282118183101715611d0557611d05611c72565b81604052838152866020858801011115611d1e57600080fd5b836020870160208301376000602085830101528094505050505092915050565b600060208284031215611d5057600080fd5b813567ffffffffffffffff811115611d6757600080fd5b611d7384828501611cb1565b949350505050565b60005b83811015611d96578181015183820152602001611d7e565b50506000910152565b60008151808452611db7816020860160208601611d7b565b601f01601f19169290920160200192915050565b60e081526000611dde60e083018a611d9f565b8281036020840152611df0818a611d9f565b90508281036040840152611e048189611d9f565b6001600160a01b039790971660608401525050608081019390935260a083019190915260c0909101529392505050565b600082601f830112611e4557600080fd5b6040516080810181811067ffffffffffffffff82111715611e6857611e68611c72565b604052806080840185811115611e7d57600080fd5b845b81811015611e97578035835260209283019201611e7f565b509195945050505050565b600082601f830112611eb357600080fd5b60405161010080820182811067ffffffffffffffff82111715611ed857611ed8611c72565b60405283018185821115611eeb57600080fd5b845b82811015611e97578035825260209182019101611eed565b6000806000806000806000610220888a031215611f2157600080fd5b611f2a88611c34565b965060208801359550604088013594506060880135935060808801359250611f558960a08a01611e34565b9150611f65896101208a01611ea2565b905092959891949750929550565b60008060408385031215611f8657600080fd5b611f8f83611c34565b946020939093013593505050565b6000604082016040835280855180835260608501915060608160051b8601019250602080880160005b83811015611ff457605f19888703018552611fe2868351611d9f565b95509382019390820190600101611fc6565b50508584038187015286518085528782019482019350915060005b8281101561202b5784518452938101939281019260010161200f565b5091979650505050505050565b60c08152600061204b60c0830189611d9f565b828103602084015261205d8189611d9f565b905082810360408401526120718188611d9f565b60608401969096525050608081019290925260a0909101529392505050565b600080600080608085870312156120a657600080fd5b6120af85611c34565b9350602085013567ffffffffffffffff808211156120cc57600080fd5b6120d888838901611cb1565b94506040870135935060608701359150808211156120f557600080fd5b5061210287828801611cb1565b91505092959194509250565b60006020828403121561212057600080fd5b5035919050565b60006020808301818452808551808352604092508286019150828160051b87010184880160005b838110156121d357603f19898403018552815160c08151855288820151818a87015261217c82870182611d9f565b91505087820151858203898701526121948282611d9f565b6060848101516001600160a01b03169088015260808085015115159088015260a09384015193909601929092525050938601939086019060010161214e565b509098975050505050505050565b6000806000808486036102408112156121f957600080fd5b853567ffffffffffffffff8082111561221157600080fd5b61221d89838a01611cb1565b9650602088013591508082111561223357600080fd5b61223f89838a01611cb1565b9550604088013591508082111561225557600080fd5b5061226288828901611cb1565b9350506101e0605f198201121561227857600080fd5b50612281611c88565b606086013581526080860135602082015260a086013560408201526122a98760c08801611e34565b60608201526122bc876101408801611ea2565b6080820152939692955090935050565b634e487b7160e01b600052603260045260246000fd5b600181811c908216806122f657607f821691505b60208210810361231657634e487b7160e01b600052602260045260246000fd5b50919050565b600080835461232a816122e2565b60018281168015612342576001811461235757612386565b60ff1984168752821515830287019450612386565b8760005260208060002060005b8581101561237d5781548a820152908401908201612364565b50505082870194505b50929695505050505050565b634e487b7160e01b600052601160045260246000fd5b6000600182016123ba576123ba612392565b5060010190565b602080825260139082015272155cd95c88191bd95cc81b9bdd08195e1a5cdd606a1b604082015260600190565b60006102008201905087825260208781840152866040840152856060840152608083018560005b600481101561243257815183529183019190830190600101612415565b50505061010083018460005b600881101561245b5781518352918301919083019060010161243e565b50505050979650505050505050565b60006020828403121561247c57600080fd5b81518015158114611c6b57600080fd5b6020808252602b908201527f5b416e6f6e41616468616172566f74655d3a2070726f6f662073656e7420697360408201526a103737ba103b30b634b21760a91b606082015260800190565b6000816124e6576124e6612392565b506000190190565b8082018082111561250157612501612392565b92915050565b808202811582820484141761250157612501612392565b60008261253b57634e487b7160e01b600052601260045260246000fd5b500490565b8181038181111561250157612501612392565b60008251612565818460208701611d7b565b9190910192915050565b601f8211156125b957600081815260208120601f850160051c810160208610156125965750805b601f850160051c820191505b818110156125b5578281556001016125a2565b5050505b505050565b815167ffffffffffffffff8111156125d8576125d8611c72565b6125ec816125e684546122e2565b8461256f565b602080601f83116001811461262157600084156126095750858301515b600019600386901b1c1916600185901b1785556125b5565b600085815260208120601f198616915b8281101561265057888601518255948401946001909101908401612631565b508582101561266e5787850151600019600388901b60f8161c191681555b5050505050600190811b01905550565b6060815260006126916060830186611d9f565b6001600160a01b039490941660208301525060400152919050565b6040815260006126bf6040830185611d9f565b82810360208401526126d18185611d9f565b9594505050505056fea2646970667358221220e01e64255bc54d620dcbb712559e594e755f71bd0e8aabce25a0c436ccec421f64736f6c63430008140033",
  "devdoc": {
    "kind": "dev",
    "methods": {},
    "version": 1
  },
  "userdoc": {
    "kind": "user",
    "methods": {},
    "version": 1
  },
  "storageLayout": {
    "storage": [
      {
        "astId": 45,
        "contract": "contracts/Backend.sol:Backend",
        "label": "anonAadhaarVerifierAddr",
        "offset": 0,
        "slot": "0",
        "type": "t_address"
      },
      {
        "astId": 47,
        "contract": "contracts/Backend.sol:Backend",
        "label": "verifier",
        "offset": 0,
        "slot": "1",
        "type": "t_address"
      },
      {
        "astId": 52,
        "contract": "contracts/Backend.sol:Backend",
        "label": "allUsers",
        "offset": 0,
        "slot": "2",
        "type": "t_array(t_address)dyn_storage"
      },
      {
        "astId": 97,
        "contract": "contracts/Backend.sol:Backend",
        "label": "totalRewardPool",
        "offset": 0,
        "slot": "3",
        "type": "t_uint256"
      },
      {
        "astId": 102,
        "contract": "contracts/Backend.sol:Backend",
        "label": "users",
        "offset": 0,
        "slot": "4",
        "type": "t_mapping(t_address,t_struct(User)67_storage)"
      },
      {
        "astId": 106,
        "contract": "contracts/Backend.sol:Backend",
        "label": "vehicleToUser",
        "offset": 0,
        "slot": "5",
        "type": "t_mapping(t_string_memory_ptr,t_address)"
      },
      {
        "astId": 112,
        "contract": "contracts/Backend.sol:Backend",
        "label": "userViolations",
        "offset": 0,
        "slot": "6",
        "type": "t_mapping(t_address,t_array(t_struct(Violation)80_storage)dyn_storage)"
      },
      {
        "astId": 116,
        "contract": "contracts/Backend.sol:Backend",
        "label": "finesPaid",
        "offset": 0,
        "slot": "7",
        "type": "t_mapping(t_address,t_uint256)"
      },
      {
        "astId": 120,
        "contract": "contracts/Backend.sol:Backend",
        "label": "violationFines",
        "offset": 0,
        "slot": "8",
        "type": "t_mapping(t_string_memory_ptr,t_uint256)"
      }
    ],
    "types": {
      "t_address": {
        "encoding": "inplace",
        "label": "address",
        "numberOfBytes": "20"
      },
      "t_array(t_address)dyn_storage": {
        "base": "t_address",
        "encoding": "dynamic_array",
        "label": "address[]",
        "numberOfBytes": "32"
      },
      "t_array(t_struct(Violation)80_storage)dyn_storage": {
        "base": "t_struct(Violation)80_storage",
        "encoding": "dynamic_array",
        "label": "struct Backend.Violation[]",
        "numberOfBytes": "32"
      },
      "t_bool": {
        "encoding": "inplace",
        "label": "bool",
        "numberOfBytes": "1"
      },
      "t_mapping(t_address,t_array(t_struct(Violation)80_storage)dyn_storage)": {
        "encoding": "mapping",
        "key": "t_address",
        "label": "mapping(address => struct Backend.Violation[])",
        "numberOfBytes": "32",
        "value": "t_array(t_struct(Violation)80_storage)dyn_storage"
      },
      "t_mapping(t_address,t_struct(User)67_storage)": {
        "encoding": "mapping",
        "key": "t_address",
        "label": "mapping(address => struct Backend.User)",
        "numberOfBytes": "32",
        "value": "t_struct(User)67_storage"
      },
      "t_mapping(t_address,t_uint256)": {
        "encoding": "mapping",
        "key": "t_address",
        "label": "mapping(address => uint256)",
        "numberOfBytes": "32",
        "value": "t_uint256"
      },
      "t_mapping(t_string_memory_ptr,t_address)": {
        "encoding": "mapping",
        "key": "t_string_memory_ptr",
        "label": "mapping(string => address)",
        "numberOfBytes": "32",
        "value": "t_address"
      },
      "t_mapping(t_string_memory_ptr,t_uint256)": {
        "encoding": "mapping",
        "key": "t_string_memory_ptr",
        "label": "mapping(string => uint256)",
        "numberOfBytes": "32",
        "value": "t_uint256"
      },
      "t_string_memory_ptr": {
        "encoding": "bytes",
        "label": "string",
        "numberOfBytes": "32"
      },
      "t_string_storage": {
        "encoding": "bytes",
        "label": "string",
        "numberOfBytes": "32"
      },
      "t_struct(User)67_storage": {
        "encoding": "inplace",
        "label": "struct Backend.User",
        "members": [
          {
            "astId": 54,
            "contract": "contracts/Backend.sol:Backend",
            "label": "basename",
            "offset": 0,
            "slot": "0",
            "type": "t_string_storage"
          },
          {
            "astId": 56,
            "contract": "contracts/Backend.sol:Backend",
            "label": "vehicleRegistrationNumber",
            "offset": 0,
            "slot": "1",
            "type": "t_string_storage"
          },
          {
            "astId": 58,
            "contract": "contracts/Backend.sol:Backend",
            "label": "vehicleType",
            "offset": 0,
            "slot": "2",
            "type": "t_string_storage"
          },
          {
            "astId": 60,
            "contract": "contracts/Backend.sol:Backend",
            "label": "walletAddress",
            "offset": 0,
            "slot": "3",
            "type": "t_address"
          },
          {
            "astId": 62,
            "contract": "contracts/Backend.sol:Backend",
            "label": "pendingFines",
            "offset": 0,
            "slot": "4",
            "type": "t_uint256"
          },
          {
            "astId": 64,
            "contract": "contracts/Backend.sol:Backend",
            "label": "rewardBalance",
            "offset": 0,
            "slot": "5",
            "type": "t_uint256"
          },
          {
            "astId": 66,
            "contract": "contracts/Backend.sol:Backend",
            "label": "points",
            "offset": 0,
            "slot": "6",
            "type": "t_uint256"
          }
        ],
        "numberOfBytes": "224"
      },
      "t_struct(Violation)80_storage": {
        "encoding": "inplace",
        "label": "struct Backend.Violation",
        "members": [
          {
            "astId": 69,
            "contract": "contracts/Backend.sol:Backend",
            "label": "time",
            "offset": 0,
            "slot": "0",
            "type": "t_uint256"
          },
          {
            "astId": 71,
            "contract": "contracts/Backend.sol:Backend",
            "label": "violationType",
            "offset": 0,
            "slot": "1",
            "type": "t_string_storage"
          },
          {
            "astId": 73,
            "contract": "contracts/Backend.sol:Backend",
            "label": "area",
            "offset": 0,
            "slot": "2",
            "type": "t_string_storage"
          },
          {
            "astId": 75,
            "contract": "contracts/Backend.sol:Backend",
            "label": "reportedBy",
            "offset": 0,
            "slot": "3",
            "type": "t_address"
          },
          {
            "astId": 77,
            "contract": "contracts/Backend.sol:Backend",
            "label": "isPaid",
            "offset": 20,
            "slot": "3",
            "type": "t_bool"
          },
          {
            "astId": 79,
            "contract": "contracts/Backend.sol:Backend",
            "label": "fineAmount",
            "offset": 0,
            "slot": "4",
            "type": "t_uint256"
          }
        ],
        "numberOfBytes": "160"
      },
      "t_uint256": {
        "encoding": "inplace",
        "label": "uint256",
        "numberOfBytes": "32"
      }
    }
  }
}