{
  "address": "0x7D0c8a98C9788D025439c618Ce264CB5ad8c365e",
  "abi": [
    {
      "inputs": [
        {
          "internalType": "address",
          "name": "_verifierAddr",
          "type": "address"
        },
        {
          "internalType": "address",
          "name": "_verifier",
          "type": "address"
        },
        {
          "internalType": "uint256",
          "name": "_pubkeyHash",
          "type": "uint256"
        }
      ],
      "stateMutability": "nonpayable",
      "type": "constructor"
    },
    {
      "anonymous": false,
      "inputs": [
        {
          "indexed": true,
          "internalType": "address",
          "name": "user",
          "type": "address"
        },
        {
          "indexed": false,
          "internalType": "uint256",
          "name": "violationIndex",
          "type": "uint256"
        },
        {
          "indexed": false,
          "internalType": "uint256",
          "name": "amount",
          "type": "uint256"
        }
      ],
      "name": "FinePaid",
      "type": "event"
    },
    {
      "anonymous": false,
      "inputs": [
        {
          "indexed": true,
          "internalType": "address",
          "name": "user",
          "type": "address"
        },
        {
          "indexed": false,
          "internalType": "uint256",
          "name": "newRewardBalance",
          "type": "uint256"
        }
      ],
      "name": "RewardUpdated",
      "type": "event"
    },
    {
      "anonymous": false,
      "inputs": [
        {
          "indexed": true,
          "internalType": "address",
          "name": "userAddress",
          "type": "address"
        },
        {
          "indexed": false,
          "internalType": "string",
          "name": "name",
          "type": "string"
        },
        {
          "indexed": false,
          "internalType": "string",
          "name": "vehicleRegistrationNumber",
          "type": "string"
        }
      ],
      "name": "UserCreated",
      "type": "event"
    },
    {
      "anonymous": false,
      "inputs": [
        {
          "indexed": true,
          "internalType": "address",
          "name": "user",
          "type": "address"
        },
        {
          "indexed": false,
          "internalType": "string",
          "name": "violationType",
          "type": "string"
        },
        {
          "indexed": false,
          "internalType": "address",
          "name": "reportedBy",
          "type": "address"
        },
        {
          "indexed": false,
          "internalType": "uint256",
          "name": "fineAmount",
          "type": "uint256"
        }
      ],
      "name": "ViolationReported",
      "type": "event"
    },
    {
      "inputs": [
        {
          "internalType": "uint256",
          "name": "",
          "type": "uint256"
        }
      ],
      "name": "allUsers",
      "outputs": [
        {
          "internalType": "address",
          "name": "",
          "type": "address"
        }
      ],
      "stateMutability": "view",
      "type": "function"
    },
    {
      "inputs": [],
      "name": "anonAadhaarVerifierAddr",
      "outputs": [
        {
          "internalType": "address",
          "name": "",
          "type": "address"
        }
      ],
      "stateMutability": "view",
      "type": "function"
    },
    {
      "inputs": [],
      "name": "convertPointsToRewards",
      "outputs": [],
      "stateMutability": "nonpayable",
      "type": "function"
    },
    {
      "inputs": [
        {
          "internalType": "string",
          "name": "_basename",
          "type": "string"
        },
        {
          "internalType": "string",
          "name": "_vehicleRegistrationNumber",
          "type": "string"
        },
        {
          "internalType": "string",
          "name": "_vehicleType",
          "type": "string"
        },
        {
          "components": [
            {
              "internalType": "uint256",
              "name": "nullifierSeed1",
              "type": "uint256"
            },
            {
              "internalType": "uint256",
              "name": "nullifier1",
              "type": "uint256"
            },
            {
              "internalType": "uint256",
              "name": "timestamp",
              "type": "uint256"
            },
            {
              "internalType": "uint256[4]",
              "name": "revealArray",
              "type": "uint256[4]"
            },
            {
              "internalType": "uint256[8]",
              "name": "groth16Proof1",
              "type": "uint256[8]"
            }
          ],
          "internalType": "struct Backend.CreateUserParams",
          "name": "params",
          "type": "tuple"
        }
      ],
      "name": "createUser",
      "outputs": [],
      "stateMutability": "payable",
      "type": "function"
    },
    {
      "inputs": [
        {
          "internalType": "address",
          "name": "",
          "type": "address"
        }
      ],
      "name": "finesPaid",
      "outputs": [
        {
          "internalType": "uint256",
          "name": "",
          "type": "uint256"
        }
      ],
      "stateMutability": "view",
      "type": "function"
    },
    {
      "inputs": [],
      "name": "getAllUsersAndPoints",
      "outputs": [
        {
          "internalType": "string[]",
          "name": "basenames",
          "type": "string[]"
        },
        {
          "internalType": "uint256[]",
          "name": "points",
          "type": "uint256[]"
        }
      ],
      "stateMutability": "view",
      "type": "function"
    },
    {
      "inputs": [],
      "name": "getContractBalance",
      "outputs": [
        {
          "internalType": "uint256",
          "name": "",
          "type": "uint256"
        }
      ],
      "stateMutability": "view",
      "type": "function"
    },
    {
      "inputs": [],
      "name": "getMyRewards",
      "outputs": [
        {
          "internalType": "uint256",
          "name": "",
          "type": "uint256"
        }
      ],
      "stateMutability": "view",
      "type": "function"
    },
    {
      "inputs": [
        {
          "internalType": "address",
          "name": "_walletAddress",
          "type": "address"
        }
      ],
      "name": "getUserDetailsByAddress",
      "outputs": [
        {
          "internalType": "string",
          "name": "basename",
          "type": "string"
        },
        {
          "internalType": "string",
          "name": "vehicleNumber",
          "type": "string"
        }
      ],
      "stateMutability": "view",
      "type": "function"
    },
    {
      "inputs": [
        {
          "internalType": "address",
          "name": "_user",
          "type": "address"
        }
      ],
      "name": "getUserViolations",
      "outputs": [
        {
          "components": [
            {
              "internalType": "uint256",
              "name": "time",
              "type": "uint256"
            },
            {
              "internalType": "string",
              "name": "violationType",
              "type": "string"
            },
            {
              "internalType": "string",
              "name": "area",
              "type": "string"
            },
            {
              "internalType": "address",
              "name": "reportedBy",
              "type": "address"
            },
            {
              "internalType": "bool",
              "name": "isPaid",
              "type": "bool"
            },
            {
              "internalType": "uint256",
              "name": "fineAmount",
              "type": "uint256"
            }
          ],
          "internalType": "struct Backend.Violation[]",
          "name": "",
          "type": "tuple[]"
        }
      ],
      "stateMutability": "view",
      "type": "function"
    },
    {
      "inputs": [
        {
          "internalType": "address",
          "name": "_user",
          "type": "address"
        },
        {
          "internalType": "uint256",
          "name": "_violationIndex",
          "type": "uint256"
        },
        {
          "internalType": "uint256",
          "name": "nullifierSeed",
          "type": "uint256"
        },
        {
          "internalType": "uint256",
          "name": "nullifier",
          "type": "uint256"
        },
        {
          "internalType": "uint256",
          "name": "timestamp",
          "type": "uint256"
        },
        {
          "internalType": "uint256[4]",
          "name": "revealArray",
          "type": "uint256[4]"
        },
        {
          "internalType": "uint256[8]",
          "name": "groth16Proof",
          "type": "uint256[8]"
        }
      ],
      "name": "payFine",
      "outputs": [],
      "stateMutability": "payable",
      "type": "function"
    },
    {
      "inputs": [
        {
          "internalType": "address",
          "name": "_user",
          "type": "address"
        },
        {
          "internalType": "string",
          "name": "_violationType",
          "type": "string"
        },
        {
          "internalType": "uint256",
          "name": "_timestamp",
          "type": "uint256"
        },
        {
          "internalType": "string",
          "name": "_area",
          "type": "string"
        }
      ],
      "name": "reportViolation",
      "outputs": [],
      "stateMutability": "nonpayable",
      "type": "function"
    },
    {
      "inputs": [],
      "name": "storedPublicKeyHash",
      "outputs": [
        {
          "internalType": "uint256",
          "name": "",
          "type": "uint256"
        }
      ],
      "stateMutability": "view",
      "type": "function"
    },
    {
      "inputs": [],
      "name": "totalRewardPool",
      "outputs": [
        {
          "internalType": "uint256",
          "name": "",
          "type": "uint256"
        }
      ],
      "stateMutability": "view",
      "type": "function"
    },
    {
      "inputs": [
        {
          "internalType": "address",
          "name": "_user",
          "type": "address"
        },
        {
          "internalType": "uint256",
          "name": "_points",
          "type": "uint256"
        }
      ],
      "name": "updatePoints",
      "outputs": [],
      "stateMutability": "nonpayable",
      "type": "function"
    },
    {
      "inputs": [
        {
          "internalType": "address",
          "name": "_user",
          "type": "address"
        },
        {
          "internalType": "uint256",
          "name": "_newReward",
          "type": "uint256"
        }
      ],
      "name": "updateUserReward",
      "outputs": [],
      "stateMutability": "nonpayable",
      "type": "function"
    },
    {
      "inputs": [
        {
          "internalType": "address",
          "name": "",
          "type": "address"
        }
      ],
      "name": "users",
      "outputs": [
        {
          "internalType": "string",
          "name": "basename",
          "type": "string"
        },
        {
          "internalType": "string",
          "name": "vehicleRegistrationNumber",
          "type": "string"
        },
        {
          "internalType": "string",
          "name": "vehicleType",
          "type": "string"
        },
        {
          "internalType": "address",
          "name": "walletAddress",
          "type": "address"
        },
        {
          "internalType": "uint256",
          "name": "pendingFines",
          "type": "uint256"
        },
        {
          "internalType": "uint256",
          "name": "rewardBalance",
          "type": "uint256"
        },
        {
          "internalType": "uint256",
          "name": "points",
          "type": "uint256"
        }
      ],
      "stateMutability": "view",
      "type": "function"
    },
    {
      "inputs": [
        {
          "internalType": "string",
          "name": "",
          "type": "string"
        }
      ],
      "name": "vehicleToUser",
      "outputs": [
        {
          "internalType": "address",
          "name": "",
          "type": "address"
        }
      ],
      "stateMutability": "view",
      "type": "function"
    },
    {
      "inputs": [],
      "name": "verifier",
      "outputs": [
        {
          "internalType": "address",
          "name": "",
          "type": "address"
        }
      ],
      "stateMutability": "view",
      "type": "function"
    },
    {
      "inputs": [
        {
          "internalType": "string",
          "name": "",
          "type": "string"
        }
      ],
      "name": "violationFines",
      "outputs": [
        {
          "internalType": "uint256",
          "name": "",
          "type": "uint256"
        }
      ],
      "stateMutability": "view",
      "type": "function"
    }
  ],
  "transactionHash": "0x4806510cc1adc867f727d7406e4ff407445e42603708ed25a854cb0a841ac78e",
  "args": [
    "0xC4C4d6c21F1D8e4591a69f7662b6EcE0f2f0E61b",
    "0x6E1c757A9E94f5D78c053A0d5Dd6854619095B88",
    "7159552241047614681013946344274430157054820687880791674287250194862110506098"
  ],
  "numDeployments": 10,
  "solcInputHash": "f9cce4464a5c7e505007e3061d5cc5c7",
  "bytecode": "0x60a06040523480156200001157600080fd5b50604051620022c8380380620022c8833981016040819052620000349162000146565b600180546001600160a01b038085166001600160a01b031992831617909255600080549286169290911691909117905560808190526040516050906008906200008b90675370656564696e6760c01b815260080190565b90815260405190819003602001812091909155665061726b696e6760c81b8152602890600890600701908152604051908190036020018120919091556814995908131a59da1d60ba1b8152603c90600890600901908152604051908190036020018120919091556857726f6e672077617960b81b8152605a906008906009019081526040519081900360200190205550506103e86003555062000187565b80516001600160a01b03811681146200014157600080fd5b919050565b6000806000606084860312156200015c57600080fd5b620001678462000129565b9250620001776020850162000129565b9150604084015190509250925092565b608051612125620001a3600039600061035001526121256000f3fe60806040526004361061011f5760003560e01c80636f9fb98a116100a0578063a2bdedf411610064578063a2bdedf414610372578063a87430ba14610392578063d0b9cf24146103c5578063eca7e54d146103f2578063ff80b1e81461040557600080fd5b80636f9fb98a1461029257806370c51139146102a557806372ff6839146102e657806396ab4bab146103065780639c895b0a1461033e57600080fd5b80632b7ac3f3116100e75780632b7ac3f3146101e75780632f24225c146102075780635393edab1461022a5780635cd798361461025857806364eef57e1461027d57600080fd5b806309c85e24146101245780630a25e2f81461014d5780630dbffbcd1461017a578063271fbd09146101b25780632af07424146101c7575b600080fd5b34801561013057600080fd5b5061013a60035481565b6040519081526020015b60405180910390f35b34801561015957600080fd5b5061013a610168366004611733565b60076020526000908152604090205481565b34801561018657600080fd5b5060005461019a906001600160a01b031681565b6040516001600160a01b039091168152602001610144565b6101c56101c0366004611865565b610425565b005b3480156101d357600080fd5b506101c56101e23660046118d3565b6106fe565b3480156101f357600080fd5b5060015461019a906001600160a01b031681565b34801561021357600080fd5b5061021c610757565b60405161014492919061194d565b34801561023657600080fd5b5061024a610245366004611733565b610940565b6040516101449291906119e8565b34801561026457600080fd5b503360009081526004602052604090206005015461013a565b34801561028957600080fd5b506101c5610abe565b34801561029e57600080fd5b504761013a565b3480156102b157600080fd5b5061019a6102c0366004611aa3565b80516020818301810180516005825292820191909301209152546001600160a01b031681565b3480156102f257600080fd5b506101c5610301366004611ae0565b610dd2565b34801561031257600080fd5b5061013a610321366004611aa3565b805160208183018101805160088252928201919093012091525481565b34801561034a57600080fd5b5061013a7f000000000000000000000000000000000000000000000000000000000000000081565b34801561037e57600080fd5b5061019a61038d366004611b5e565b611001565b34801561039e57600080fd5b506103b26103ad366004611733565b61102b565b6040516101449796959493929190611b77565b3480156103d157600080fd5b506103e56103e0366004611733565b611208565b6040516101449190611be0565b6101c5610400366004611c9a565b6113e1565b34801561041157600080fd5b506101c56104203660046118d3565b6115fd565b6001600160a01b03878116600090815260046020526040902060030154166104685760405162461bcd60e51b815260040161045f90611d85565b60405180910390fd5b6001600160a01b038716600090815260066020526040902080548790811061049257610492611db2565b906000526020600020906005020160030160149054906101000a900460ff16156104f25760405162461bcd60e51b8152602060048201526011602482015270119a5b9948185b1c9958591e481c185a59607a1b604482015260640161045f565b600080546001600160a01b03166350de0e578787873388886040518763ffffffff1660e01b815260040161052b96959493929190611dc8565b602060405180830381865afa158015610548573d6000803e3d6000fd5b505050506040513d601f19601f8201168201806040525081019061056c9190611e44565b90508061058b5760405162461bcd60e51b815260040161045f90611e66565b6001600160a01b03881660009081526006602052604081208054899081106105b5576105b5611db2565b90600052602060002090600502019050806004015434146106295760405162461bcd60e51b815260206004820152602860248201527f5061796d656e74206d75737420626520657175616c20746f207468652066696e6044820152671948185b5bdd5b9d60c21b606482015260840161045f565b60038101805460ff60a01b1916600160a01b1790556001600160a01b038916600090815260046020819052604082200180549161066583611ec7565b90915550506001600160a01b03891660009081526007602052604081208054349290610692908490611ede565b9250508190555034600360008282546106ab9190611ede565b9091555050604080518981523460208201526001600160a01b038b16917f7cf7727a6ea8ffa8b0fa4c048af68e653cbe5008f79a2ab7518ef64d667f9095910160405180910390a2505050505050505050565b6001600160a01b03828116600090815260046020526040902060030154166107385760405162461bcd60e51b815260040161045f90611d85565b6001600160a01b03909116600090815260046020526040902060060155565b60025460609081908067ffffffffffffffff81111561077857610778611755565b6040519080825280602002602001820160405280156107ab57816020015b60608152602001906001900390816107965790505b5092508067ffffffffffffffff8111156107c7576107c7611755565b6040519080825280602002602001820160405280156107f0578160200160208202803683370190505b50915060005b8181101561093a5760006002828154811061081357610813611db2565b60009182526020808320909101546001600160a01b03168083526004909152604090912080549192509061084690611ef7565b80601f016020809104026020016040519081016040528092919081815260200182805461087290611ef7565b80156108bf5780601f10610894576101008083540402835291602001916108bf565b820191906000526020600020905b8154815290600101906020018083116108a257829003601f168201915b50505050508583815181106108d6576108d6611db2565b602002602001018190525060046000826001600160a01b03166001600160a01b031681526020019081526020016000206006015484838151811061091c5761091c611db2565b6020908102919091010152508061093281611f31565b9150506107f6565b50509091565b6001600160a01b0381811660009081526004602052604090206003015460609182911661097f5760405162461bcd60e51b815260040161045f90611d85565b6001600160a01b03831660009081526004602052604090208054600182019082906109a990611ef7565b80601f01602080910402602001604051908101604052809291908181526020018280546109d590611ef7565b8015610a225780601f106109f757610100808354040283529160200191610a22565b820191906000526020600020905b815481529060010190602001808311610a0557829003601f168201915b50505050509150808054610a3590611ef7565b80601f0160208091040260200160405190810160405280929190818152602001828054610a6190611ef7565b8015610aae5780601f10610a8357610100808354040283529160200191610aae565b820191906000526020600020905b815481529060010190602001808311610a9157829003601f168201915b5050505050905091509150915091565b3360009081526004602052604090206006810154610b155760405162461bcd60e51b8152602060048201526014602482015273139bc81c1bda5b9d1cc81d1bc818dbdb9d995c9d60621b604482015260640161045f565b600060035411610b5e5760405162461bcd60e51b815260206004820152601460248201527352657761726420706f6f6c20697320656d70747960601b604482015260640161045f565b6040805160018082528183019092526000918291906020808301908036833701905050905060005b8151811015610bf05760046000838381518110610ba557610ba5611db2565b60200260200101516001600160a01b03166001600160a01b031681526020019081526020016000206006015483610bdc9190611ede565b925080610be881611f31565b915050610b86565b5060008211610c415760405162461bcd60e51b815260206004820152601760248201527f4e6f20706f696e747320696e207468652073797374656d000000000000000000604482015260640161045f565b6000826003548560060154610c569190611f4a565b610c609190611f61565b905080471015610cc65760405162461bcd60e51b815260206004820152602b60248201527f4e6f7420656e6f7567682066756e647320696e20636f6e747261637420746f2060448201526a706179207265776172647360a81b606482015260840161045f565b604051600090339083908381818185875af1925050503d8060008114610d08576040519150601f19603f3d011682016040523d82523d6000602084013e610d0d565b606091505b5050905080610d575760405162461bcd60e51b815260206004820152601660248201527514995dd85c99081d1c985b9cd9995c8819985a5b195960521b604482015260640161045f565b81856005016000828254610d6b9190611ede565b909155505060006006860181905560038054849290610d8b908490611f83565b9091555050600585015460405190815233907f401ccfec4c6c7ac3f3b71182750d0f8d73c0d29cc476732b0b21ab0d359da47f906020015b60405180910390a25050505050565b6001600160a01b0384811660009081526004602052604090206003015416610e0c5760405162461bcd60e51b815260040161045f90611d85565b6000600884604051610e1e9190611f96565b90815260200160405180910390205411610e735760405162461bcd60e51b8152602060048201526016602482015275496e76616c69642076696f6c6174696f6e207479706560501b604482015260640161045f565b42821115610eb75760405162461bcd60e51b81526020600482015260116024820152700496e76616c69642074696d657374616d7607c1b604482015260640161045f565b6000600884604051610ec99190611f96565b908152604080519182900360209081018320546001600160a01b03891660009081526006835283812060c0860185528886528584018a81529486018890523360608701526080860182905260a0860183905280546001818101835591835293909120855160059094020192835592519094509091820190610f4a9082612001565b5060408201516002820190610f5f9082612001565b50606082015160038201805460808501511515600160a01b026001600160a81b03199091166001600160a01b039384161717905560a0909201516004918201559086166000908152602082905260408120909101805491610fbf83611f31565b9190505550846001600160a01b03167faa376010f293fc2cf9fd32a4f6f25fcc273f37844a3b33f76cab5211070da180853384604051610dc3939291906120c1565b6002818154811061101157600080fd5b6000918252602090912001546001600160a01b0316905081565b60046020526000908152604090208054819061104690611ef7565b80601f016020809104026020016040519081016040528092919081815260200182805461107290611ef7565b80156110bf5780601f10611094576101008083540402835291602001916110bf565b820191906000526020600020905b8154815290600101906020018083116110a257829003601f168201915b5050505050908060010180546110d490611ef7565b80601f016020809104026020016040519081016040528092919081815260200182805461110090611ef7565b801561114d5780601f106111225761010080835404028352916020019161114d565b820191906000526020600020905b81548152906001019060200180831161113057829003601f168201915b50505050509080600201805461116290611ef7565b80601f016020809104026020016040519081016040528092919081815260200182805461118e90611ef7565b80156111db5780601f106111b0576101008083540402835291602001916111db565b820191906000526020600020905b8154815290600101906020018083116111be57829003601f168201915b5050505060038301546004840154600585015460069095015493946001600160a01b039092169390925087565b6001600160a01b0381166000908152600660209081526040808320805482518185028101850190935280835260609492939192909184015b828210156113d657838290600052602060002090600502016040518060c00160405290816000820154815260200160018201805461127d90611ef7565b80601f01602080910402602001604051908101604052809291908181526020018280546112a990611ef7565b80156112f65780601f106112cb576101008083540402835291602001916112f6565b820191906000526020600020905b8154815290600101906020018083116112d957829003601f168201915b5050505050815260200160028201805461130f90611ef7565b80601f016020809104026020016040519081016040528092919081815260200182805461133b90611ef7565b80156113885780601f1061135d57610100808354040283529160200191611388565b820191906000526020600020905b81548152906001019060200180831161136b57829003601f168201915b505050918352505060038201546001600160a01b038116602080840191909152600160a01b90910460ff16151560408301526004909201546060909101529082526001929092019101611240565b505050509050919050565b336000908152600460205260409020600301546001600160a01b0316156114405760405162461bcd60e51b81526020600482015260136024820152725573657220616c72656164792065786973747360681b604482015260640161045f565b600061146382600001518360200151846040015185606001518660800151611693565b9050806114825760405162461bcd60e51b815260040161045f90611e66565b6040805160e0810182528681526020808201879052818301869052336060830181905260006080840181905260a08401819052606460c0850152908152600490915291909120815181906114d69082612001565b50602082015160018201906114eb9082612001565b50604082015160028201906115009082612001565b5060608201516003820180546001600160a01b039092166001600160a01b03199283161790556080830151600483015560a083015160058084019190915560c090930151600690920191909155600280546001810182556000919091527f405787fa12a823e0f2b7631cc41b3ba8828b3321ca811111fa75cd3aa3bb5ace0180549091163390811790915560405190919061159c908790611f96565b90815260405190819003602001812080546001600160a01b03939093166001600160a01b03199093169290921790915533907fa2e1d286e25c6fce64acccdfd7a54d53cce2f617ddff648ab1dbb3458ccdd95b90610dc390889088906119e8565b6001600160a01b03828116600090815260046020526040902060030154166116375760405162461bcd60e51b815260040161045f90611d85565b6001600160a01b03821660008181526004602052604090819020600501839055517f401ccfec4c6c7ac3f3b71182750d0f8d73c0d29cc476732b0b21ab0d359da47f906116879084815260200190565b60405180910390a25050565b600080546001600160a01b03166350de0e578787873388886040518763ffffffff1660e01b81526004016116cc96959493929190611dc8565b602060405180830381865afa1580156116e9573d6000803e3d6000fd5b505050506040513d601f19601f8201168201806040525081019061170d9190611e44565b9695505050505050565b80356001600160a01b038116811461172e57600080fd5b919050565b60006020828403121561174557600080fd5b61174e82611717565b9392505050565b634e487b7160e01b600052604160045260246000fd5b60405160a0810167ffffffffffffffff8111828210171561178e5761178e611755565b60405290565b600082601f8301126117a557600080fd5b6040516080810181811067ffffffffffffffff821117156117c8576117c8611755565b6040528060808401858111156117dd57600080fd5b845b818110156117f75780358352602092830192016117df565b509195945050505050565b600082601f83011261181357600080fd5b60405161010080820182811067ffffffffffffffff8211171561183857611838611755565b6040528301818582111561184b57600080fd5b845b828110156117f757803582526020918201910161184d565b6000806000806000806000610220888a03121561188157600080fd5b61188a88611717565b9650602088013595506040880135945060608801359350608088013592506118b58960a08a01611794565b91506118c5896101208a01611802565b905092959891949750929550565b600080604083850312156118e657600080fd5b6118ef83611717565b946020939093013593505050565b60005b83811015611918578181015183820152602001611900565b50506000910152565b600081518084526119398160208601602086016118fd565b601f01601f19169290920160200192915050565b6000604082016040835280855180835260608501915060608160051b8601019250602080880160005b838110156119a457605f19888703018552611992868351611921565b95509382019390820190600101611976565b50508584038187015286518085528782019482019350915060005b828110156119db578451845293810193928101926001016119bf565b5091979650505050505050565b6040815260006119fb6040830185611921565b8281036020840152611a0d8185611921565b95945050505050565b600082601f830112611a2757600080fd5b813567ffffffffffffffff80821115611a4257611a42611755565b604051601f8301601f19908116603f01168101908282118183101715611a6a57611a6a611755565b81604052838152866020858801011115611a8357600080fd5b836020870160208301376000602085830101528094505050505092915050565b600060208284031215611ab557600080fd5b813567ffffffffffffffff811115611acc57600080fd5b611ad884828501611a16565b949350505050565b60008060008060808587031215611af657600080fd5b611aff85611717565b9350602085013567ffffffffffffffff80821115611b1c57600080fd5b611b2888838901611a16565b9450604087013593506060870135915080821115611b4557600080fd5b50611b5287828801611a16565b91505092959194509250565b600060208284031215611b7057600080fd5b5035919050565b60e081526000611b8a60e083018a611921565b8281036020840152611b9c818a611921565b90508281036040840152611bb08189611921565b6001600160a01b039790971660608401525050608081019390935260a083019190915260c0909101529392505050565b60006020808301818452808551808352604092508286019150828160051b87010184880160005b83811015611c8c57603f19898403018552815160c08151855288820151818a870152611c3582870182611921565b9150508782015185820389870152611c4d8282611921565b6060848101516001600160a01b03169088015260808085015115159088015260a093840151939096019290925250509386019390860190600101611c07565b509098975050505050505050565b600080600080848603610240811215611cb257600080fd5b853567ffffffffffffffff80821115611cca57600080fd5b611cd689838a01611a16565b96506020880135915080821115611cec57600080fd5b611cf889838a01611a16565b95506040880135915080821115611d0e57600080fd5b50611d1b88828901611a16565b9350506101e0605f1982011215611d3157600080fd5b50611d3a61176b565b606086013581526080860135602082015260a08601356040820152611d628760c08801611794565b6060820152611d75876101408801611802565b6080820152939692955090935050565b602080825260139082015272155cd95c88191bd95cc81b9bdd08195e1a5cdd606a1b604082015260600190565b634e487b7160e01b600052603260045260246000fd5b60006102008201905087825260208781840152866040840152856060840152608083018560005b6004811015611e0c57815183529183019190830190600101611def565b50505061010083018460005b6008811015611e3557815183529183019190830190600101611e18565b50505050979650505050505050565b600060208284031215611e5657600080fd5b8151801515811461174e57600080fd5b6020808252602b908201527f5b416e6f6e41616468616172566f74655d3a2070726f6f662073656e7420697360408201526a103737ba103b30b634b21760a91b606082015260800190565b634e487b7160e01b600052601160045260246000fd5b600081611ed657611ed6611eb1565b506000190190565b80820180821115611ef157611ef1611eb1565b92915050565b600181811c90821680611f0b57607f821691505b602082108103611f2b57634e487b7160e01b600052602260045260246000fd5b50919050565b600060018201611f4357611f43611eb1565b5060010190565b8082028115828204841417611ef157611ef1611eb1565b600082611f7e57634e487b7160e01b600052601260045260246000fd5b500490565b81810381811115611ef157611ef1611eb1565b60008251611fa88184602087016118fd565b9190910192915050565b601f821115611ffc57600081815260208120601f850160051c81016020861015611fd95750805b601f850160051c820191505b81811015611ff857828155600101611fe5565b5050505b505050565b815167ffffffffffffffff81111561201b5761201b611755565b61202f816120298454611ef7565b84611fb2565b602080601f831160018114612064576000841561204c5750858301515b600019600386901b1c1916600185901b178555611ff8565b600085815260208120601f198616915b8281101561209357888601518255948401946001909101908401612074565b50858210156120b15787850151600019600388901b60f8161c191681555b5050505050600190811b01905550565b6060815260006120d46060830186611921565b6001600160a01b03949094166020830152506040015291905056fea26469706673582212207cd694195ab4ca31e4ba8a9f69d15acec5a8b7b7138c41ada45e7b85ae5ff18364736f6c63430008140033",
  "devdoc": {
    "kind": "dev",
    "methods": {},
    "version": 1
  },
  "userdoc": {
    "kind": "user",
    "methods": {},
    "version": 1
  },
  "storageLayout": {
    "storage": [
      {
        "astId": 45,
        "contract": "contracts/Backend.sol:Backend",
        "label": "anonAadhaarVerifierAddr",
        "offset": 0,
        "slot": "0",
        "type": "t_address"
      },
      {
        "astId": 47,
        "contract": "contracts/Backend.sol:Backend",
        "label": "verifier",
        "offset": 0,
        "slot": "1",
        "type": "t_address"
      },
      {
        "astId": 52,
        "contract": "contracts/Backend.sol:Backend",
        "label": "allUsers",
        "offset": 0,
        "slot": "2",
        "type": "t_array(t_address)dyn_storage"
      },
      {
        "astId": 97,
        "contract": "contracts/Backend.sol:Backend",
        "label": "totalRewardPool",
        "offset": 0,
        "slot": "3",
        "type": "t_uint256"
      },
      {
        "astId": 102,
        "contract": "contracts/Backend.sol:Backend",
        "label": "users",
        "offset": 0,
        "slot": "4",
        "type": "t_mapping(t_address,t_struct(User)67_storage)"
      },
      {
        "astId": 106,
        "contract": "contracts/Backend.sol:Backend",
        "label": "vehicleToUser",
        "offset": 0,
        "slot": "5",
        "type": "t_mapping(t_string_memory_ptr,t_address)"
      },
      {
        "astId": 112,
        "contract": "contracts/Backend.sol:Backend",
        "label": "userViolations",
        "offset": 0,
        "slot": "6",
        "type": "t_mapping(t_address,t_array(t_struct(Violation)80_storage)dyn_storage)"
      },
      {
        "astId": 116,
        "contract": "contracts/Backend.sol:Backend",
        "label": "finesPaid",
        "offset": 0,
        "slot": "7",
        "type": "t_mapping(t_address,t_uint256)"
      },
      {
        "astId": 120,
        "contract": "contracts/Backend.sol:Backend",
        "label": "violationFines",
        "offset": 0,
        "slot": "8",
        "type": "t_mapping(t_string_memory_ptr,t_uint256)"
      }
    ],
    "types": {
      "t_address": {
        "encoding": "inplace",
        "label": "address",
        "numberOfBytes": "20"
      },
      "t_array(t_address)dyn_storage": {
        "base": "t_address",
        "encoding": "dynamic_array",
        "label": "address[]",
        "numberOfBytes": "32"
      },
      "t_array(t_struct(Violation)80_storage)dyn_storage": {
        "base": "t_struct(Violation)80_storage",
        "encoding": "dynamic_array",
        "label": "struct Backend.Violation[]",
        "numberOfBytes": "32"
      },
      "t_bool": {
        "encoding": "inplace",
        "label": "bool",
        "numberOfBytes": "1"
      },
      "t_mapping(t_address,t_array(t_struct(Violation)80_storage)dyn_storage)": {
        "encoding": "mapping",
        "key": "t_address",
        "label": "mapping(address => struct Backend.Violation[])",
        "numberOfBytes": "32",
        "value": "t_array(t_struct(Violation)80_storage)dyn_storage"
      },
      "t_mapping(t_address,t_struct(User)67_storage)": {
        "encoding": "mapping",
        "key": "t_address",
        "label": "mapping(address => struct Backend.User)",
        "numberOfBytes": "32",
        "value": "t_struct(User)67_storage"
      },
      "t_mapping(t_address,t_uint256)": {
        "encoding": "mapping",
        "key": "t_address",
        "label": "mapping(address => uint256)",
        "numberOfBytes": "32",
        "value": "t_uint256"
      },
      "t_mapping(t_string_memory_ptr,t_address)": {
        "encoding": "mapping",
        "key": "t_string_memory_ptr",
        "label": "mapping(string => address)",
        "numberOfBytes": "32",
        "value": "t_address"
      },
      "t_mapping(t_string_memory_ptr,t_uint256)": {
        "encoding": "mapping",
        "key": "t_string_memory_ptr",
        "label": "mapping(string => uint256)",
        "numberOfBytes": "32",
        "value": "t_uint256"
      },
      "t_string_memory_ptr": {
        "encoding": "bytes",
        "label": "string",
        "numberOfBytes": "32"
      },
      "t_string_storage": {
        "encoding": "bytes",
        "label": "string",
        "numberOfBytes": "32"
      },
      "t_struct(User)67_storage": {
        "encoding": "inplace",
        "label": "struct Backend.User",
        "members": [
          {
            "astId": 54,
            "contract": "contracts/Backend.sol:Backend",
            "label": "basename",
            "offset": 0,
            "slot": "0",
            "type": "t_string_storage"
          },
          {
            "astId": 56,
            "contract": "contracts/Backend.sol:Backend",
            "label": "vehicleRegistrationNumber",
            "offset": 0,
            "slot": "1",
            "type": "t_string_storage"
          },
          {
            "astId": 58,
            "contract": "contracts/Backend.sol:Backend",
            "label": "vehicleType",
            "offset": 0,
            "slot": "2",
            "type": "t_string_storage"
          },
          {
            "astId": 60,
            "contract": "contracts/Backend.sol:Backend",
            "label": "walletAddress",
            "offset": 0,
            "slot": "3",
            "type": "t_address"
          },
          {
            "astId": 62,
            "contract": "contracts/Backend.sol:Backend",
            "label": "pendingFines",
            "offset": 0,
            "slot": "4",
            "type": "t_uint256"
          },
          {
            "astId": 64,
            "contract": "contracts/Backend.sol:Backend",
            "label": "rewardBalance",
            "offset": 0,
            "slot": "5",
            "type": "t_uint256"
          },
          {
            "astId": 66,
            "contract": "contracts/Backend.sol:Backend",
            "label": "points",
            "offset": 0,
            "slot": "6",
            "type": "t_uint256"
          }
        ],
        "numberOfBytes": "224"
      },
      "t_struct(Violation)80_storage": {
        "encoding": "inplace",
        "label": "struct Backend.Violation",
        "members": [
          {
            "astId": 69,
            "contract": "contracts/Backend.sol:Backend",
            "label": "time",
            "offset": 0,
            "slot": "0",
            "type": "t_uint256"
          },
          {
            "astId": 71,
            "contract": "contracts/Backend.sol:Backend",
            "label": "violationType",
            "offset": 0,
            "slot": "1",
            "type": "t_string_storage"
          },
          {
            "astId": 73,
            "contract": "contracts/Backend.sol:Backend",
            "label": "area",
            "offset": 0,
            "slot": "2",
            "type": "t_string_storage"
          },
          {
            "astId": 75,
            "contract": "contracts/Backend.sol:Backend",
            "label": "reportedBy",
            "offset": 0,
            "slot": "3",
            "type": "t_address"
          },
          {
            "astId": 77,
            "contract": "contracts/Backend.sol:Backend",
            "label": "isPaid",
            "offset": 20,
            "slot": "3",
            "type": "t_bool"
          },
          {
            "astId": 79,
            "contract": "contracts/Backend.sol:Backend",
            "label": "fineAmount",
            "offset": 0,
            "slot": "4",
            "type": "t_uint256"
          }
        ],
        "numberOfBytes": "160"
      },
      "t_uint256": {
        "encoding": "inplace",
        "label": "uint256",
        "numberOfBytes": "32"
      }
    }
  }
}